:020000040800F2
:1000000078370020150500088D0500088D050008CB
:100010008D0500088D0500088D0500080000000012
:100020000000000000000000000000008D05000836
:100030008D050008000000008D050008E9C50008D6
:100040008D0500088D0500088D0500088D05000848
:100050008D0500088D0500088D0500088D05000838
:100060008D0500088D0500088D0500088D05000828
:100070008D0500088D0500088D0500088D05000818
:100080008D0500088D0500088D0500088D05000808
:100090008D0500088D0500088D0500088D050008F8
:1000A0008D0500088D0500088D0500088D050008E8
:1000B0008D050008F92400088D0500088D0500084D
:1000C0008D0500088D0500088D0500088D050008C8
:1000D0008D05000891C100088D050008FDBE0008CF
:1000E0008D0500088D0500088D0500088D050008A8
:1000F0008D0500088D0500088D0500088D05000898
:100100008D0500088D0500088D0500088D05000887
:100110008D0500088D0500088D0500088D05000877
:100120008D0500088D0500088D0500088D05000867
:100130008D0500088D0500088D0500088D05000857
:100140008D0500088D0500088D0500088D05000847
:100150008D0500088D0500088D0500088D05000837
:100160008D0500088D0500088D0500088D05000827
:100170008D0500088D0500088D0500088D05000817
:100180008D0500088D05000880B58AB000AF786045
:1001900039604FF000037B624FF000033B624FF089
:1001A0000003FB614FF00003BB617B681B8A9BB2BD
:1001B0007B627B6A23F440537B623B68DB887A6A0C
:1001C00013437B627B6A9AB27B681A827B689B8945
:1001D0009BB27B627B6A23F4B05323F00C037B62F7
:1001E0003B689A883B681B8913439AB23B685B89DA
:1001F00013439BB27A6A13437B627B6A9AB27B6831
:100200009A817B689B8A9BB27B627B6A23F44073F2
:100210007B623B689B897A6A13437B627B6A9AB2F2
:100220007B689A8207F1080318460BF0F9FF7A6899
:100230004FF48053C4F201039A4206D07A684FF417
:10024000A053C4F201039A4202D17B693B6201E0F0
:100250003B693B627B689B899BB29BB21BB2002BC4
:100260000FDA3A6A13464FEA83039B184FEA830278
:100270009A183B681B684FEA4303B2FBF3F3FB6138
:100280000EE03A6A13464FEA83039B184FEA830253
:100290009A183B681B684FEA8303B2FBF3F3FB61D8
:1002A000FA6948F21F53C5F2EB13A3FB02134FEA9E
:1002B00053134FEA03137B627B6A4FEA13134FF029
:1002C000640202FB03F3FA69D31ABB617B689B8962
:1002D0009BB29BB21BB2002B12DABB694FEAC3037D
:1002E00003F1320248F21F53C5F2EB13A3FB0213D2
:1002F0004FEA531303F007037A6A13437B6211E05A
:10030000BB694FEA031303F1320248F21F53C5F2EF
:10031000EB13A3FB02134FEA531303F00F037A6AA4
:1003200013437B627B6A9AB27B681A8107F12807C4
:10033000BD4680BD80B483B000AF78600B46FB70D3
:10034000FB78002B08D07B689B899BB243F4005359
:100350009AB27B689A8107E07B689B899BB223F401
:1003600000539AB27B689A8107F10C07BD4680BCA6
:10037000704700BF80B483B000AF78600B467B80CD
:100380007B884FEAC3534FEAD3539AB27B689A8073
:1003900000BF7B681B889BB203F08003002BF8D062
:1003A00007F10C07BD4680BC704700BF80B487B022
:1003B00000AF786013460A467A807B704FF00003E6
:1003C0003B614FF00003FB604FF00003BB604FF058
:1003D00000037B617B687B617B88DBB24FEA531350
:1003E000DBB23B617B8803F01F03FB60FB684FF0CF
:1003F000010202FA03F3BB603B69012B04D17B6964
:1004000003F10C037B610BE03B69022B04D17B6998
:1004100003F110037B6103E07B6903F114037B614B
:100420007B78002B06D07B697A691168BA680A4329
:100430001A6007E07B697A691168BA686FEA02029C
:100440000A401A6007F11C07BD4680BC704700BF18
:1004500080B487B000AF78600B467B804FF000031C
:10046000FB604FF000037B614FF00003BB604FF077
:100470000003FB747B88DBB24FEA5313DBB2BB6033
:100480007B8803F01F037B617B694FF0010202FA56
:1004900003F37B61BB68012B06D17B689B899BB210
:1004A0007A6913407B610FE0BB68022B06D17B6841
:1004B0001B8A9BB27A6913407B6105E07B689B8A4B
:1004C0009BB27A6913407B617B884FEA13239BB20E
:1004D000FB60FB684FF0010202FA03F3FB607B68EC
:1004E0001B889BB2FA681340FB607B69002B06D027
:1004F000FB68002B03D04FF00103FB7402E04FF0C8
:100500000003FB74FB7C184607F11C07BD4680BC4A
:10051000704700BF80B582B000AF4FF6BC73C0F625
:1005200000037B6040F20003C2F200033B600BE07B
:100530007B681A683B681A603B6803F104033B6000
:100540007B6803F104037B603A6840F2B443C2F273
:1005500000039A42ECD30A480A494FF0000288424D
:10056000B8BF40F8042BFADBDFF81C00016841F447
:100570007001016000F00EF807F10807BD4680BD6C
:10058000B4040020782F002088ED00E080B400AF94
:10059000FEE700BF80B500AF01F0D8FD02F086FE97
:1005A0004FF47A700CF052F84FF49040C4F200000F
:1005B00040F25001C2F200010BF07CFC4FF032001F
:1005C0000CF044F840F22073C2F200031B78A3F150
:1005D00041030E2B01F2A78501A252F823F000BFC0
:1005E0001D06000873060008D50A00082F0C000835
:1005F000890D0008E10F0008391200089114000865
:10060000E9160008371700088D190008D9190008E5
:100610002F1C0008851E0008DB20000802F046FEA3
:100620004FF47A700CF012F840F22073C2F200031B
:100630004FF000021A7040F22073C2F200034FF034
:1006400000025A7040F22073C2F200034FF0000221
:100650009A704FF49040C4F2000040F25001C2F290
:1006600000010BF027FC4FF032000BF0EFFF01F020
:100670006ABD40F22073C2F200035B78A3F141032C
:100680000C2B01F25F8501A252F823F0C10600088D
:100690001107000861070008B107000801080008F9
:1006A00051080008A1080008F108000841090008E5
:1006B00091090008E1090008310A0008810A0008D0
:1006C0004FF0410002F07AFE40F22073C2F20003C4
:1006D0004FF000021A7040F22073C2F200034FF094
:1006E00000025A7040F22073C2F200034FF0000281
:1006F0009A704FF49040C4F2000040F25001C2F2F0
:1007000000010BF0D7FB4FF032000BF09FFFDFE151
:100710004FF0420002F052FE40F22073C2F200039A
:100720004FF000021A7040F22073C2F200034FF043
:1007300000025A7040F22073C2F200034FF0000230
:100740009A704FF49040C4F2000040F25001C2F29F
:1007500000010BF0AFFB4FF032000BF077FFB7E179
:100760004FF0430002F02AFE40F22073C2F2000371
:100770004FF000021A7040F22073C2F200034FF0F3
:1007800000025A7040F22073C2F200034FF00002E0
:100790009A704FF49040C4F2000040F25001C2F24F
:1007A00000010BF087FB4FF032000BF04FFF8FE1A1
:1007B0004FF0440002F002FE40F22073C2F2000348
:1007C0004FF000021A7040F22073C2F200034FF0A3
:1007D00000025A7040F22073C2F200034FF0000290
:1007E0009A704FF49040C4F2000040F25001C2F2FF
:1007F00000010BF05FFB4FF032000BF027FF67E1C9
:100800004FF0450002F0DAFD40F22073C2F200031F
:100810004FF000021A7040F22073C2F200034FF052
:1008200000025A7040F22073C2F200034FF000023F
:100830009A704FF49040C4F2000040F25001C2F2AE
:1008400000010BF037FB4FF032000BF0FFFE3FE1F1
:100850004FF0460002F0B2FD40F22073C2F20003F6
:100860004FF000021A7040F22073C2F200034FF002
:1008700000025A7040F22073C2F200034FF00002EF
:100880009A704FF49040C4F2000040F25001C2F25E
:1008900000010BF00FFB4FF032000BF0D7FE17E119
:1008A0004FF0470002F08AFD40F22073C2F20003CD
:1008B0004FF000021A7040F22073C2F200034FF0B2
:1008C00000025A7040F22073C2F200034FF000029F
:1008D0009A704FF49040C4F2000040F25001C2F20E
:1008E00000010BF0E7FA4FF032000BF0AFFEEFE043
:1008F0004FF0480002F062FD40F22073C2F20003A4
:100900004FF000021A7040F22073C2F200034FF061
:1009100000025A7040F22073C2F200034FF000024E
:100920009A704FF49040C4F2000040F25001C2F2BD
:1009300000010BF0BFFA4FF032000BF087FEC7E06A
:100940004FF0490002F03AFD40F22073C2F200037A
:100950004FF000021A7040F22073C2F200034FF011
:1009600000025A7040F22073C2F200034FF00002FE
:100970009A704FF49040C4F2000040F25001C2F26D
:1009800000010BF097FA4FF032000BF05FFE9FE092
:100990004FF04A0002F012FD40F22073C2F2000351
:1009A0004FF000021A7040F22073C2F200034FF0C1
:1009B00000025A7040F22073C2F200034FF00002AE
:1009C0009A704FF49040C4F2000040F25001C2F21D
:1009D00000010BF06FFA4FF032000BF037FE77E0BA
:1009E0004FF04B0002F0EAFC40F22073C2F2000329
:1009F0004FF000021A7040F22073C2F200034FF071
:100A000000025A7040F22073C2F200034FF000025D
:100A10009A704FF49040C4F2000040F25001C2F2CC
:100A200000010BF047FA4FF032000BF00FFE4FE0E1
:100A30004FF04C0002F0C2FC40F22073C2F20003FF
:100A40004FF000021A7040F22073C2F200034FF020
:100A500000025A7040F22073C2F200034FF000020D
:100A60009A704FF49040C4F2000040F25001C2F27C
:100A700000010BF01FFA4FF032000BF0E7FD27E00A
:100A80004FF04D0002F09AFC40F22073C2F20003D6
:100A90004FF000021A7040F22073C2F200034FF0D0
:100AA00000025A7040F22073C2F200034FF00002BD
:100AB0009A704FF49040C4F2000040F25001C2F22C
:100AC00000010BF0F7F94FF032000BF0BFFD00BF53
:100AD00001F038BB40F22073C2F200035B78322B86
:100AE00039D0332B6CD0312B40F09F8040F22073F3
:100AF000C2F200039B78312B2BD0322B2AD14FF03E
:100B000005004FF0FA0103F0E1FF40F22073C2F25A
:100B100000034FF000021A7040F22073C2F200038B
:100B20004FF000025A7040F22073C2F200034FF0FF
:100B300000029A704FF49040C4F2000040F250015D
:100B4000C2F200010BF0B6F94FF032000BF07EFD5F
:100B500000E000BF69E040F22073C2F200039B781E
:100B6000312B2BD0322B2AD14FF005004FF09601BC
:100B700003F0ACFF40F22073C2F200034FF000021A
:100B80001A7040F22073C2F200034FF000025A7054
:100B900040F22073C2F200034FF000029A704FF44B
:100BA0009040C4F2000040F25001C2F200010BF08C
:100BB00081F94FF032000BF049FD00E000BF34E056
:100BC00040F22073C2F200039B78312B2BD0322BE2
:100BD0002AD14FF005004FF0820103F077FF40F279
:100BE0002073C2F200034FF000021A7040F220732B
:100BF000C2F200034FF000025A7040F22073C2F2BA
:100C000000034FF000029A704FF49040C4F20000CD
:100C100040F25001C2F200010BF04CF94FF03200EB
:100C20000BF014FD00E000BF00BF01F08CBA40F2F1
:100C30002073C2F200035B78322B39D0332B6CD097
:100C4000312B40F09F8040F22073C2F200039B786A
:100C5000312B2BD0322B2AD14FF005004FF0FA0167
:100C600004F078FB40F22073C2F200034FF0000260
:100C70001A7040F22073C2F200034FF000025A7063
:100C800040F22073C2F200034FF000029A704FF45A
:100C90009040C4F2000040F25001C2F200010BF09B
:100CA00009F94FF032000BF0D1FC00E000BF69E021
:100CB00040F22073C2F200039B78312B2BD0322BF1
:100CC0002AD14FF005004FF0960104F043FB40F2AB
:100CD0002073C2F200034FF000021A7040F220733A
:100CE000C2F200034FF000025A7040F22073C2F2C9
:100CF00000034FF000029A704FF49040C4F20000DD
:100D000040F25001C2F200010BF0D4F84FF0320073
:100D10000BF09CFC00E000BF34E040F22073C2F214
:100D200000039B78312B2BD0322B2AD14FF00500BA
:100D30004FF0820104F00EFB40F22073C2F2000378
:100D40004FF000021A7040F22073C2F200034FF01D
:100D500000025A7040F22073C2F200034FF000020A
:100D60009A704FF49040C4F2000040F25001C2F279
:100D700000010BF09FF84FF032000BF067FC00E031
:100D800000BF00BF01F0DFB940F22073C2F20003E0
:100D90005B78322B64D0332B00F0C180312B40F0D4
:100DA0001D8140F22073C2F200039B78312B02D0E8
:100DB000322B2AD053E04FF0FA004FF0020104F03A
:100DC00081FF40F22073C2F200034FF000021A705C
:100DD00040F22073C2F200034FF000025A7040F25A
:100DE0002073C2F200034FF000029A704FF490405B
:100DF000C4F2000040F25001C2F200010BF05AF8B8
:100E00004FF032000BF022FC29E04FF0FA004FF0D7
:100E1000050104F057FF40F22073C2F200034FF0C7
:100E200000021A7040F22073C2F200034FF0000279
:100E30005A7040F22073C2F200034FF000029A7021
:100E40004FF49040C4F2000040F25001C2F20001A1
:100E50000BF030F84FF032000BF0F8FB00BFBDE0B4
:100E600040F22073C2F200039B78312B02D0322B68
:100E70002AD053E04FF096004FF0020104F022FF19
:100E800040F22073C2F200034FF000021A7040F2E9
:100E90002073C2F200034FF000025A7040F2207338
:100EA000C2F200034FF000029A704FF49040C4F277
:100EB000000040F25001C2F200010AF0FBFF4FF0C7
:100EC00032000BF0C3FB29E04FF096004FF0050114
:100ED00004F0F8FE40F22073C2F200034FF000026B
:100EE0001A7040F22073C2F200034FF000025A70F1
:100EF00040F22073C2F200034FF000029A704FF4E8
:100F00009040C4F2000040F25001C2F200010AF029
:100F1000D1FF4FF032000BF099FB00BF5EE040F2D2
:100F20002073C2F200039B78312B02D0322B2AD0DF
:100F300053E04FF082004FF0020104F0C3FE40F294
:100F40002073C2F200034FF000021A7040F22073C7
:100F5000C2F200034FF000025A7040F22073C2F256
:100F600000034FF000029A704FF49040C4F200006A
:100F700040F25001C2F200010AF09CFF4FF0320033
:100F80000BF064FB29E04FF082004FF0050104F004
:100F900099FE40F22073C2F200034FF000021A7073
:100FA00040F22073C2F200034FF000025A7040F288
:100FB0002073C2F200034FF000029A704FF4904089
:100FC000C4F2000040F25001C2F200010AF072FFC8
:100FD0004FF032000BF03AFB00BF00BF01F0B3B896
:100FE00040F22073C2F200035B78322B64D0332BC3
:100FF00000F0C180312B40F01D8140F22073C2F21D
:1010000000039B78312B02D0322B2AD053E04FF0D3
:10101000FA004FF0020105F031FC40F22073C2F2F9
:1010200000034FF000021A7040F22073C2F2000376
:101030004FF000025A7040F22073C2F200034FF0EA
:1010400000029A704FF49040C4F2000040F2500148
:10105000C2F200010AF02EFF4FF032000BF0F6FA58
:1010600029E04FF0FA004FF0050105F007FC40F2CF
:101070002073C2F200034FF000021A7040F2207396
:10108000C2F200034FF000025A7040F22073C2F225
:1010900000034FF000029A704FF49040C4F2000039
:1010A00040F25001C2F200010AF004FF4FF032009A
:1010B0000BF0CCFA00BFBDE040F22073C2F2000397
:1010C0009B78312B02D0322B2AD053E04FF0960080
:1010D0004FF0020105F0D2FB40F22073C2F2000390
:1010E0004FF000021A7040F22073C2F200034FF07A
:1010F00000025A7040F22073C2F200034FF0000267
:101100009A704FF49040C4F2000040F25001C2F2D5
:1011100000010AF0CFFE4FF032000BF097FA29E001
:101120004FF096004FF0050105F0A8FB40F2207348
:10113000C2F200034FF000021A7040F22073C2F2B4
:1011400000034FF000025A7040F22073C2F2000315
:101150004FF000029A704FF49040C4F2000040F249
:101160005001C2F200010AF0A5FE4FF032000BF070
:101170006DFA00BF5EE040F22073C2F200039B787C
:10118000312B02D0322B2AD053E04FF082004FF0A7
:10119000020105F073FB40F22073C2F200034FF02E
:1011A00000021A7040F22073C2F200034FF00002F6
:1011B0005A7040F22073C2F200034FF000029A709E
:1011C0004FF49040C4F2000040F25001C2F200011E
:1011D0000AF070FE4FF032000BF038FA29E04FF0C1
:1011E00082004FF0050105F049FB40F22073C2F286
:1011F00000034FF000021A7040F22073C2F20003A5
:101200004FF000025A7040F22073C2F200034FF018
:1012100000029A704FF49040C4F2000040F2500176
:10122000C2F200010AF046FE4FF032000BF00EFA57
:1012300000BF00BF00F087BF40F22073C2F200037E
:101240005B78322B64D0332B00F0C180312B40F01F
:101250001D8140F22073C2F200039B78312B02D033
:10126000322B2AD053E04FF0FA004FF0020106F083
:10127000E1F840F22073C2F200034FF000021A704E
:1012800040F22073C2F200034FF000025A7040F2A5
:101290002073C2F200034FF000029A704FF49040A6
:1012A000C4F2000040F25001C2F200010AF002FE56
:1012B0004FF032000BF0CAF929E04FF0FA004FF07E
:1012C000050106F0B7F840F22073C2F200034FF0B8
:1012D00000021A7040F22073C2F200034FF00002C5
:1012E0005A7040F22073C2F200034FF000029A706D
:1012F0004FF49040C4F2000040F25001C2F20001ED
:101300000AF0D8FD4FF032000BF0A0F900BFBDE0AD
:1013100040F22073C2F200039B78312B02D0322BB3
:101320002AD053E04FF096004FF0020106F082F809
:1013300040F22073C2F200034FF000021A7040F234
:101340002073C2F200034FF000025A7040F2207383
:10135000C2F200034FF000029A704FF49040C4F2C2
:10136000000040F25001C2F200010AF0A3FD4FF06C
:1013700032000BF06BF929E04FF096004FF00501B9
:1013800006F058F840F22073C2F200034FF000025A
:101390001A7040F22073C2F200034FF000025A703C
:1013A00040F22073C2F200034FF000029A704FF433
:1013B0009040C4F2000040F25001C2F200010AF075
:1013C00079FD4FF032000BF041F900BF5EE040F2D2
:1013D0002073C2F200039B78312B02D0322B2AD02B
:1013E00053E04FF082004FF0020106F023F840F284
:1013F0002073C2F200034FF000021A7040F2207313
:10140000C2F200034FF000025A7040F22073C2F2A1
:1014100000034FF000029A704FF49040C4F20000B5
:1014200040F25001C2F200010AF044FD4FF03200D8
:101430000BF00CF929E04FF082004FF0050105F0A8
:10144000F9FF40F22073C2F200034FF000021A705D
:1014500040F22073C2F200034FF000025A7040F2D3
:101460002073C2F200034FF000029A704FF49040D4
:10147000C4F2000040F25001C2F200010AF01AFD6D
:101480004FF032000BF0E2F800BF00BF00F05BBE8F
:1014900040F22073C2F200035B78322B64D0332B0E
:1014A00000F0C180312B40F01D8140F22073C2F268
:1014B00000039B78312B02D0322B2AD053E04FF01F
:1014C000FA004FF0020106F029FC40F22073C2F24C
:1014D00000034FF000021A7040F22073C2F20003C2
:1014E0004FF000025A7040F22073C2F200034FF036
:1014F00000029A704FF49040C4F2000040F2500194
:10150000C2F200010AF0D6FC4FF032000BF09EF858
:1015100029E04FF0FA004FF0050106F0FFFB40F222
:101520002073C2F200034FF000021A7040F22073E1
:10153000C2F200034FF000025A7040F22073C2F270
:1015400000034FF000029A704FF49040C4F2000084
:1015500040F25001C2F200010AF0ACFC4FF0320040
:101560000BF074F800BFBDE040F22073C2F200033C
:101570009B78312B02D0322B2AD053E04FF09600CB
:101580004FF0020106F0CAFB40F22073C2F20003E2
:101590004FF000021A7040F22073C2F200034FF0C5
:1015A00000025A7040F22073C2F200034FF00002B2
:1015B0009A704FF49040C4F2000040F25001C2F221
:1015C00000010AF077FC4FF032000BF03FF829E001
:1015D0004FF096004FF0050106F0A0FB40F220739B
:1015E000C2F200034FF000021A7040F22073C2F200
:1015F00000034FF000025A7040F22073C2F2000361
:101600004FF000029A704FF49040C4F2000040F294
:101610005001C2F200010AF04DFC4FF032000BF015
:1016200015F800BF5EE040F22073C2F200039B7821
:10163000312B02D0322B2AD053E04FF082004FF0F2
:10164000020106F06BFB40F22073C2F200034FF080
:1016500000021A7040F22073C2F200034FF0000241
:101660005A7040F22073C2F200034FF000029A70E9
:101670004FF49040C4F2000040F25001C2F2000169
:101680000AF018FC4FF032000AF0E0FF29E04FF0BA
:1016900082004FF0050106F041FB40F22073C2F2D8
:1016A00000034FF000021A7040F22073C2F20003F0
:1016B0004FF000025A7040F22073C2F200034FF064
:1016C00000029A704FF49040C4F2000040F25001C2
:1016D000C2F200010AF0EEFB4FF032000AF0B6FF52
:1016E00000BF00BF00F02FBD06F0B4FF40F2207332
:1016F000C2F200034FF000021A7040F22073C2F2EF
:1017000000034FF000025A7040F22073C2F200034F
:101710004FF000029A704FF49040C4F2000040F283
:101720005001C2F200010AF0C5FB4FF032000AF08E
:101730008DFF00F008BD40F22073C2F200035B7819
:10174000322B64D0332B00F0C180312B40F01D814F
:1017500040F22073C2F200039B78312B02D0322B6F
:101760002AD053E04FF0FA004FF0020107F060FA80
:1017700040F22073C2F200034FF000021A7040F2F0
:101780002073C2F200034FF000025A7040F220733F
:10179000C2F200034FF000029A704FF49040C4F27E
:1017A000000040F25001C2F200010AF083FB4FF04A
:1017B00032000AF04BFF29E04FF0FA004FF005012C
:1017C00007F036FA40F22073C2F200034FF0000235
:1017D0001A7040F22073C2F200034FF000025A70F8
:1017E00040F22073C2F200034FF000029A704FF4EF
:1017F0009040C4F2000040F25001C2F200010AF031
:1018000059FB4FF032000AF021FF00BFBDE040F26B
:101810002073C2F200039B78312B02D0322B2AD0E6
:1018200053E04FF096004FF0020107F001FA40F24A
:101830002073C2F200034FF000021A7040F22073CE
:10184000C2F200034FF000025A7040F22073C2F25D
:1018500000034FF000029A704FF49040C4F2000071
:1018600040F25001C2F200010AF024FB4FF03200B6
:101870000AF0ECFE29E04FF096004FF0050107F06A
:10188000D7F940F22073C2F200034FF000021A7041
:1018900040F22073C2F200034FF000025A7040F28F
:1018A0002073C2F200034FF000029A704FF4904090
:1018B000C4F2000040F25001C2F200010AF0FAFA4C
:1018C0004FF032000AF0C2FE00BF5EE040F220732B
:1018D000C2F200039B78312B02D0322B2AD053E086
:1018E0004FF082004FF0020107F0A2F940F220739E
:1018F000C2F200034FF000021A7040F22073C2F2ED
:1019000000034FF000025A7040F22073C2F200034D
:101910004FF000029A704FF49040C4F2000040F281
:101920005001C2F200010AF0C5FA4FF032000AF08D
:101930008DFE29E04FF082004FF0050107F078F9A5
:1019400040F22073C2F200034FF000021A7040F21E
:101950002073C2F200034FF000025A7040F220736D
:10196000C2F200034FF000029A704FF49040C4F2AC
:10197000000040F25001C2F200010AF09BFA4FF061
:1019800032000AF063FE00BF00BFDCE307F076FD23
:1019900040F22073C2F200034FF000021A7040F2CE
:1019A0002073C2F200034FF000025A7040F220731D
:1019B000C2F200034FF000029A704FF49040C4F25C
:1019C000000040F25001C2F200010AF073FA4FF039
:1019D00032000AF03BFEB6E340F22073C2F200038D
:1019E0005B78322B64D0332B00F0C180312B40F078
:1019F0001D8140F22073C2F200039B78312B02D08C
:101A0000322B2AD053E04FF0FA004FF0020108F0D9
:101A100099F840F22073C2F200034FF000021A70EE
:101A200040F22073C2F200034FF000025A7040F2FD
:101A30002073C2F200034FF000029A704FF49040FE
:101A4000C4F2000040F25001C2F200010AF032FA82
:101A50004FF032000AF0FAFD29E04FF0FA004FF0A3
:101A6000050108F06FF840F22073C2F200034FF056
:101A700000021A7040F22073C2F200034FF000021D
:101A80005A7040F22073C2F200034FF000029A70C5
:101A90004FF49040C4F2000040F25001C2F2000145
:101AA0000AF008FA4FF032000AF0D0FD00BFBDE0A6
:101AB00040F22073C2F200039B78312B02D0322B0C
:101AC0002AD053E04FF096004FF0020108F03AF8A8
:101AD00040F22073C2F200034FF000021A7040F28D
:101AE0002073C2F200034FF000025A7040F22073DC
:101AF000C2F200034FF000029A704FF49040C4F21B
:101B0000000040F25001C2F200010AF0D3F94FF098
:101B100032000AF09BFD29E04FF096004FF00501DE
:101B200008F010F840F22073C2F200034FF00002F8
:101B30001A7040F22073C2F200034FF000025A7094
:101B400040F22073C2F200034FF000029A704FF48B
:101B50009040C4F2000040F25001C2F200010AF0CD
:101B6000A9F94FF032000AF071FD00BF5EE040F2CB
:101B70002073C2F200039B78312B02D0322B2AD083
:101B800053E04FF082004FF0020107F0DBFF40F21C
:101B90002073C2F200034FF000021A7040F220736B
:101BA000C2F200034FF000025A7040F22073C2F2FA
:101BB00000034FF000029A704FF49040C4F200000E
:101BC00040F25001C2F200010AF074F94FF0320005
:101BD0000AF03CFD29E04FF082004FF0050107F0CC
:101BE000B1FF40F22073C2F200034FF000021A70FE
:101BF00040F22073C2F200034FF000025A7040F22C
:101C00002073C2F200034FF000029A704FF490402C
:101C1000C4F2000040F25001C2F200010AF04AF999
:101C20004FF032000AF012FD00BF00BF8BE240F21D
:101C30002073C2F200035B78322B64D0332B00F0A8
:101C4000C180312B40F01D8140F22073C2F20003AD
:101C50009B78312B02D0322B2AD053E04FF0FA0080
:101C60004FF0020109F0E2F840F22073C2F20003E3
:101C70004FF000021A7040F22073C2F200034FF0DE
:101C800000025A7040F22073C2F200034FF00002CB
:101C90009A704FF49040C4F2000040F25001C2F23A
:101CA00000010AF007F94FF032000AF0CFFC29E0FA
:101CB0004FF0FA004FF0050109F0B8F840F2207338
:101CC000C2F200034FF000021A7040F22073C2F219
:101CD00000034FF000025A7040F22073C2F200037A
:101CE0004FF000029A704FF49040C4F2000040F2AE
:101CF0005001C2F200010AF0DDF84FF032000AF0A4
:101D0000A5FC00BFBDE040F22073C2F200039B7847
:101D1000312B02D0322B2AD053E04FF096004FF0F7
:101D2000020109F083F840F22073C2F200034FF081
:101D300000021A7040F22073C2F200034FF000025A
:101D40005A7040F22073C2F200034FF000029A7002
:101D50004FF49040C4F2000040F25001C2F2000182
:101D60000AF0A8F84FF032000AF070FC29E04FF0BA
:101D700096004FF0050109F059F840F22073C2F2C5
:101D800000034FF000021A7040F22073C2F2000309
:101D90004FF000025A7040F22073C2F200034FF07D
:101DA00000029A704FF49040C4F2000040F25001DB
:101DB000C2F200010AF07EF84FF032000AF046FC51
:101DC00000BF5EE040F22073C2F200039B78312B2B
:101DD00002D0322B2AD053E04FF082004FF00201A4
:101DE00009F024F840F22073C2F200034FF0000221
:101DF0001A7040F22073C2F200034FF000025A70D2
:101E000040F22073C2F200034FF000029A704FF4C8
:101E10009040C4F2000040F25001C2F200010AF00A
:101E200049F84FF032000AF011FC29E04FF082002F
:101E30004FF0050108F0FAFF40F22073C2F20003F0
:101E40004FF000021A7040F22073C2F200034FF00C
:101E500000025A7040F22073C2F200034FF00002F9
:101E60009A704FF49040C4F2000040F25001C2F268
:101E700000010AF01FF84FF032000AF0E7FB00BF44
:101E800000BF60E140F22073C2F200035B78322BA6
:101E900064D0332B00F0C180312B40F01D8140F223
:101EA0002073C2F200039B78312B02D0322B2AD050
:101EB00053E04FF0FA004FF0020109F07BFB40F2D3
:101EC0002073C2F200034FF000021A7040F2207338
:101ED000C2F200034FF000025A7040F22073C2F2C7
:101EE00000034FF000029A704FF49040C4F20000DB
:101EF00040F25001C2F2000109F0DCFF4FF0320065
:101F00000AF0A4FB29E04FF0FA004FF0050109F0B8
:101F100051FB40F22073C2F200034FF000021A702E
:101F200040F22073C2F200034FF000025A7040F2F8
:101F30002073C2F200034FF000029A704FF49040F9
:101F4000C4F2000040F25001C2F2000109F0B2FFF9
:101F50004FF032000AF07AFB00BFBDE040F2207380
:101F6000C2F200039B78312B02D0322B2AD053E0EF
:101F70004FF096004FF0020109F01CFB40F2207375
:101F8000C2F200034FF000021A7040F22073C2F256
:101F900000034FF000025A7040F22073C2F20003B7
:101FA0004FF000029A704FF49040C4F2000040F2EB
:101FB0005001C2F2000109F07DFF4FF032000AF03B
:101FC00045FB29E04FF096004FF0050109F0F2FAC9
:101FD00040F22073C2F200034FF000021A7040F288
:101FE0002073C2F200034FF000025A7040F22073D7
:101FF000C2F200034FF000029A704FF49040C4F216
:10200000000040F25001C2F2000109F053FF4FF00E
:1020100032000AF01BFB00BF5EE040F22073C2F208
:1020200000039B78312B02D0322B2AD053E04FF0A3
:1020300082004FF0020109F0BDFA40F22073C2F2B3
:1020400000034FF000021A7040F22073C2F2000346
:102050004FF000025A7040F22073C2F200034FF0BA
:1020600000029A704FF49040C4F2000040F2500118
:10207000C2F2000109F01EFF4FF032000AF0E6FA4A
:1020800029E04FF082004FF0050109F093FA40F289
:102090002073C2F200034FF000021A7040F2207366
:1020A000C2F200034FF000025A7040F22073C2F2F5
:1020B00000034FF000029A704FF49040C4F2000009
:1020C00040F25001C2F2000109F0F4FE4FF032007C
:1020D0000AF0BCFA00BF00BF35E008F059F940F241
:1020E0002073C2F200034FF000021A7040F2207316
:1020F000C2F200034FF000025A7040F22073C2F2A5
:1021000000034FF000029A704FF49040C4F20000B8
:1021100040F25001C2F2000109F0CCFE4FF0320053
:102120000AF094FA0FE04FF49040C4F2000040F23D
:102130005401C2F2000109F0BDFE4FF032000AF076
:1021400085FA00E000BFFEF72FBA00BF80B500AFF0
:102150000AF0B0FB00F000F900F038F800F00CF8DD
:102160000AF02AFA4FF4165009F0E8FD4FF4165021
:1021700009F052FF80BD00BF80B500AF40F2D443EC
:10218000C2F200034FF6FF725A6040F2D443C2F22B
:1021900000034FF015021A8040F2D443C2F200034C
:1021A0004FF000021A8140F2D443C2F200034FF014
:1021B00000025A804FF48060C4F2000040F2D44123
:1021C000C2F200010AF004FD80BD00BF80B582B0FC
:1021D00000AF4FF002004FF001010AF035F94FF067
:1021E0001D033B714FF000037B714FF00103BB7186
:1021F0004FF00103FB7107F1040318460AF076FC67
:1022000040F2E043C2F200034FF000021A8040F2B5
:10221000E043C2F200034FF001025A8040F25053F3
:10222000C2F200031A6840F2E043C2F200039A606F
:1022300040F2E043C2F200034FF000029A814FF4F3
:102240008060C4F2000040F2E041C2F200010AF0F6
:1022500059FD4FF48060C4F200004FF000010AF015
:10226000F3FE40F2E043C2F200034FF001025A8055
:1022700040F2EC73C2F200031A6840F2E043C2F28B
:1022800000039A604FF48060C4F2000040F2E04125
:10229000C2F200010AF0B4FD4FF48060C4F2000005
:1022A0004FF000010AF0ECFE40F2E043C2F20003FE
:1022B0004FF001025A8040F62803C2F200031A6868
:1022C00040F2E043C2F200039A604FF48060C4F22F
:1022D000000040F2E041C2F200010AF025FE4FF496
:1022E0008060C4F200004FF000010AF0E9FE4FF4F4
:1022F0008060C4F200004FF001014FF001020AF0CB
:10230000FBFE4FF48060C4F200004FF002014FF07A
:1023100001020AF0F1FE4FF48060C4F200004FF0B9
:1023200004014FF001020AF0E7FE4FF48060C4F2AE
:1023300000004FF008014FF001020AF0DDFE4FF4FB
:102340008060C4F200004FF001010AF0BBFC07F10D
:102350000807BD4680BD00BF80B500AF4FF002004A
:102360004FF001010AF044F840F2CC43C2F20003FE
:102370004FF03F021A6040F2CC43C2F200034FF02C
:1023800001021A7140F2CC43C2F200034FF0000286
:102390009A7140F2CC43C2F200034FF003025A712B
:1023A00040F2CC43C2F200034FF00002DA714FF466
:1023B0008060C4F2020040F2CC41C2F200010AF097
:1023C0005DF94FF004004FF001010AF011F840F2FE
:1023D000CC43C2F200034FF03F021A6040F2CC43FC
:1023E000C2F200034FF001021A7140F2CC43C2F274
:1023F00000034FF000029A7140F2CC43C2F2000396
:102400004FF003025A7140F2CC43C2F200034FF086
:102410000002DA714FF40060C4F2020040F2CC41D5
:10242000C2F200010AF02AF94FF008004FF0010152
:1024300009F0DEFF40F2CC43C2F200034FF03F024E
:102440001A6040F2CC43C2F200034FF001021A714D
:1024500040F2CC43C2F200034FF000029A7140F206
:10246000CC43C2F200034FF003025A7140F2CC4356
:10247000C2F200034FF00002DA714FF44060C4F280
:10248000020040F2CC41C2F200010AF0F7F84FF02E
:1024900008004FF0010109F0ABFF40F2CC43C2F25B
:1024A00000034FF470421A6040F2CC43C2F20003C2
:1024B0004FF001021A7140F2CC43C2F200034FF018
:1024C00000029A7140F2CC43C2F200034FF00302C3
:1024D0005A7140F2CC43C2F200034FF00002DA71AD
:1024E0004FF44060C4F2020040F2CC41C2F200015D
:1024F0000AF0C4F880BD00BF80B500AF4FF4806023
:10250000C4F200004FF001010AF01AFE0346002B4E
:1025100000F0268140F2B853C2F200031B7803F1A9
:102520000103DAB240F2B853C2F200031A7040F26B
:10253000B853C2F200031B78072B06D940F2B853F8
:10254000C2F200034FF000021A704FF48060C4F230
:1025500000004FF001010AF023FE40F2B853C2F22E
:1025600000031B78052B00F2A58001A252F823F08E
:1025700089250008BB250008ED2500081F26000856
:1025800051260008832600084FF48060C4F2020040
:102590004FF001010AF01CF94FF44060C4F2020050
:1025A0004FF001010AF014F94FF40060C4F2020088
:1025B0004FF008010AF00CF97CE04FF48060C4F29F
:1025C00002004FF002010AF003F94FF44060C4F238
:1025D00002004FF002010AF0FBF84FF40060C4F271
:1025E00002004FF010010AF0F3F863E04FF480604E
:1025F000C4F202004FF004010AF0EAF84FF4406020
:10260000C4F202004FF004010AF0E2F84FF4006057
:10261000C4F202004FF020010AF0DAF84AE04FF469
:102620000060C4F202004FF001010AF0D1F84FF44B
:102630008060C4F202004FF008010AF0C9F84FF4BC
:102640004060C4F202004FF008010AF0C1F831E026
:102650004FF40060C4F202004FF002010AF0B8F833
:102660004FF48060C4F202004FF010010AF0B0F89D
:102670004FF44060C4F202004FF010010AF0A8F8D5
:1026800018E04FF40060C4F202004FF004010AF0B9
:102690009FF84FF48060C4F202004FF020010AF06E
:1026A00097F84FF44060C4F202004FF020010AF0A6
:1026B0008FF800BF40F2B853C2F200031B78052B1D
:1026C00007D940F66003C2F200034FF000021A700F
:1026D00010E040F2B853C2F200031B78052B09D872
:1026E00040F2B853C2F200031A7840F66003C2F217
:1026F00000031A704FF48063C4F2000340F66002D6
:10270000C2F200021278114640F20002C2F2000248
:1027100052F821205A634FF48063C4F2000340F65C
:102720006002C2F20002127802F1060140F20002D9
:10273000C2F2000252F821209A634FF48063C4F27F
:10274000000340F66002C2F20002127802F10C01AE
:1027500040F20002C2F2000252F82120DA6325E1C1
:102760004FF48060C4F200004FF002010AF0E8FC70
:102770000346012B55D14FF48060C4F200004FF0A6
:1027800002010AF00DFD40F2B853C2F200031B78BB
:10279000052B00F2088101A252F823F0B5270008AA
:1027A000C7270008D9270008EB270008FD270008E5
:1027B000112800084FF48060C4F202004FF00101BC
:1027C0000AF014F8F2E04FF48060C4F202004FF017
:1027D00002010AF00BF8E9E04FF48060C4F2020055
:1027E0004FF004010AF002F8E0E04FF40060C4F298
:1027F00002004FF0010109F0F9FFD7E04FF400604B
:10280000C4F202004FF0020109F0F0FF00BFCDE07A
:102810004FF40060C4F202004FF0040109F0E6FF3B
:10282000C1E04FF48060C4F200004FF004010AF0F0
:1028300087FC0346012B56D14FF48060C4F20000A0
:102840004FF004010AF0ACFC40F2B853C2F20003AE
:102850001B78052B00F2A98001A252F823F000BFDB
:10286000792800088B2800089D280008AF28000858
:10287000C1280008D52800084FF44060C4F20200C7
:102880004FF0010109F0B2FF90E04FF44060C4F254
:1028900002004FF0020109F0A9FF87E04FF4406009
:1028A000C4F202004FF0040109F0A0FF7EE04FF4F3
:1028B0008060C4F202004FF0080109F097FF75E054
:1028C0004FF48060C4F202004FF0100109F08EFF57
:1028D00000BF6BE04FF48060C4F202004FF02001B3
:1028E00009F084FF61E04FF48060C4F200004FF013
:1028F00008010AF025FC0346012B57D14FF48060F4
:10290000C4F200004FF008010AF04AFC40F2B8534C
:10291000C2F200031B78052B48D801A252F823F01D
:10292000392900084B2900085D2900086F29000893
:1029300081290008932900084FF40060C4F20200C6
:102940004FF0080109F052FF30E04FF40060C4F28C
:1029500002004FF0100109F049FF27E04FF400603A
:10296000C4F202004FF0200109F040FF1EE04FF4D6
:102970004060C4F202004FF0080109F037FF15E093
:102980004FF44060C4F202004FF0100109F02EFF36
:102990000CE04FF44060C4F202004FF0200109F057
:1029A00025FF00BF02E000BF00E000BF80BD00BF08
:1029B000B0B584B000AFF860B96087ED010AD7ED1B
:1029C000017AFDEEE77A17EE902A40F22C53C2F21C
:1029D00000031A60BB6803F1FF33BB60BB6806EEFF
:1029E000903AF8EEE67A40F2BC53C2F20003C3ED2F
:1029F000007A40F25463C2F200034FF000021A6002
:102A0000B4E140F25463C2F200031A6840F2546326
:102A1000C2F2000319684FF6C443C0F600034FEA40
:102A200081015B1893ED007AFB6806EE903AF8EEB0
:102A3000E67A77EE677AFDEEE77A17EE901A40F6BF
:102A40003C03C2F2000343F8221040F2BC53C2F22E
:102A500000031B6818460CF029FD04460D4640F2A1
:102A60005463C2F200031A6840F63C03C2F200034A
:102A700053F8223018460CF007FD02460B4610466C
:102A80001946C1A3D3E900230CF08EFE02460B4683
:102A900043EC172BB0EE470AF0EE670A0AF058FD38
:102AA00053EC102B204629460CF054FD02460B46F1
:102AB000104619460DF010F8024640F22873C2F293
:102AC00000031A6040F25463C2F200031A684FF622
:102AD000AC43C0F600034FEA82029B1893ED007AE4
:102AE00040F22873C2F20003D3ED007A77EE677AE2
:102AF00040F22873C2F20003C3ED007A40F2BC53E7
:102B0000C2F200031B6818460CF0D0FC04460D46C8
:102B100040F25463C2F200031A6840F63C03C2F26A
:102B2000000353F8223018460CF0AEFC02460B4668
:102B30001046194694A3D3E900230CF035FE024653
:102B40000B4643EC172BB0EE470AF0EE670A0AF08B
:102B500063FD53EC102B204629460CF0FBFC02468B
:102B60000B46104619460CF0B7FF024640F66403C8
:102B7000C2F200031A6040F66403C2F2000393ED50
:102B8000007A40F22873C2F20003D3ED007AC7EE58
:102B9000277A40F22873C2F20003C3ED007A40F2B4
:102BA0002873C2F200031B6818460CF07FFC024633
:102BB0000B4643EC102B0AF007FB53EC102B10468E
:102BC00019460CF089FF024640F22873C2F2000356
:102BD0001A6040F25463C2F200031C6840F228738A
:102BE000C2F200031B6818460CF060FC02460B465C
:102BF0001046194664A3D3E900230CF0ABFC02464F
:102C00000B46104619460CF067FF024640F27873F7
:102C1000C2F200034FEA84015B181A6040F2546369
:102C2000C2F200031A6840F63C03C2F2000353F8F4
:102C3000223018460CF028FC02460B461046194676
:102C400051A3D3E900230CF0AFFD02460B4643EC41
:102C5000172BB0EE470AF0EE670A0AF0DDFC53ECE2
:102C6000102B104619460CF037FF024640F228732D
:102C7000C2F200031A6040F2BC53C2F2000393EDAB
:102C8000007A40F22873C2F20003D3ED007A67EEB7
:102C9000277A40F22873C2F20003C3ED007A40F2B3
:102CA0005463C2F200031A6840F27873C2F2000360
:102CB0004FEA82029B181B6818460CF0F7FB02468D
:102CC0000B461046194630A3D3E900230CF06CFDE7
:102CD00002460B4643EC172BB0EE470AF0EE670AAC
:102CE0000AF09AFC53EC102B104619460CF0F4FE37
:102CF000024640F66403C2F200031A6040F22873F1
:102D0000C2F2000393ED007A40F66403C2F20003BE
:102D1000D3ED007AC7EE277A40F22873C2F200039F
:102D2000C3ED007A40F25463C2F200031A6840F225
:102D30002873C2F2000393ED007AF1EE0C7A77EE7D
:102D4000677A40F28C63C2F200034FEA82029B185A
:102D5000C3ED007A40F25463C2F200031B6803F132
:102D6000010240F25463C2F200031A6040F254635D
:102D7000C2F200031B68052B7FF743AE07F1100773
:102D8000BD46B0BDAFF3008085EB51B81EA54C40E9
:102D900080B584B000AF034687ED020AC7ED010A93
:102DA00087ED001AFB7340F65403C2F20003BA68C1
:102DB0001A6040F20863C2F200037A681A6040F2B7
:102DC0000863C2F2000393ED007AF0EE007A77EE2A
:102DD000677A40F20863C2F20003C3ED007A40F262
:102DE0008463C2F20003DFF840241A6040F23C53CF
:102DF000C2F20003DFF834241A6040F20863C2F222
:102E0000000393ED007A40F20863C2F20003D3EDB1
:102E1000007A27EE277AD7ED006AD7ED007A66EEC2
:102E2000A77A37EE277A40F28463C2F20003D3ED2B
:102E3000007A37EE677A40F23C53C2F20003D3EDDA
:102E4000007AC7EE277A17EE900A0CF02FFB0246A5
:102E50000B4643EC102B0AF03BFC53EC102B1046B6
:102E600019460CF039FE024640F65403C2F2000344
:102E70009A6040F65403C2F200039B6818460CF0B7
:102E800015FB02460B4643EC102B0AF061FB53EC9A
:102E9000102B10461946DEA3D3E900230CF05AFB91
:102EA00002460B4610461946DBA3D3E900230CF07B
:102EB0009FF902460B46104619460CF00DFE0246DD
:102EC00040F2E873C2F200031A6040F65403C2F203
:102ED00000039B6818460CF0E9FA02460B4643ECE7
:102EE000102B0AF099FB53EC102B10461946C8A37F
:102EF000D3E900230CF02EFB02460B461046194680
:102F00000CF0EAFD024640F23853C2F200031A60A8
:102F100040F2E873C2F2000393ED007AD7ED007A35
:102F200027EE277A40F20863C2F20003D3ED006A6D
:102F300040F23853C2F20003D3ED007A66EEA77A6E
:102F400037EE677A40F20863C2F20003D3ED006AFD
:102F500040F2E873C2F20003D3ED007A66EEA76A8E
:102F600040F23853C2F2000393ED006AD7ED007AC5
:102F700066EE277A76EEA77AC7EE277A17EE900AE2
:102F80000CF094FA02460B4643EC102B0AF01CF9A5
:102F900053EC102B104619460CF09EFD024640F6ED
:102FA0005403C2F200035A6040F65403C2F2000315
:102FB0009B6818460CF07AFA02460B4610461946F2
:102FC00097A3D3E900230CF0C5FA02460B4610463E
:102FD00019460CF081FD024640F65403C2F200038C
:102FE0009A6040F65403C2F200035B6818460CF086
:102FF0005DFA02460B461046194689A3D3E9002321
:103000000CF0A8FA02460B46104619460CF064FD77
:10301000024640F65403C2F200035A60FB7B03F100
:10302000FF33052B00F2EE8001A252F823F000BF1F
:103030004930000893300008DD30000827310008CF
:1030400071310008BB31000840F65403C2F200039E
:10305000D3ED007A4FF00000B0EE670A00F0E8F818
:1030600040F65403C2F20003D3ED017A4FF00100A1
:10307000B0EE670A00F0DCF840F65403C2F2000339
:10308000D3ED027A4FF00200B0EE670A00F0D0F8FC
:10309000B8E040F65403C2F20003D3ED007A4FF0DB
:1030A0000900B0EE670A00F0C3F840F65403C2F21C
:1030B0000003D3ED017A4FF00A00B0EE670A00F08A
:1030C000B7F840F65403C2F20003D3ED027A4FF092
:1030D0000B00B0EE670A00F0ABF893E040F6540343
:1030E000C2F20003D3ED007A4FF00300B0EE670A9E
:1030F00000F09EF840F65403C2F20003D3ED017ACB
:103100004FF00400B0EE670A00F092F840F6540366
:10311000C2F20003D3ED027A4FF00500B0EE670A69
:1031200000F086F86EE040F65403C2F20003D3EDDF
:10313000007A4FF00C00B0EE670A00F079F840F624
:103140005403C2F20003D3ED017A4FF00D00B0EE4C
:10315000670A00F06DF840F65403C2F20003D3EDA5
:10316000027A4FF00E00B0EE670A00F061F849E015
:1031700040F65403C2F20003D3ED007A4FF006008C
:10318000B0EE670A00F054F840F65403C2F20003B0
:10319000D3ED017A4FF00700B0EE670A00F048F86F
:1031A00040F65403C2F20003D3ED027A4FF0080058
:1031B000B0EE670A00F03CF824E040F65403C2F297
:1031C0000003D3ED007A4FF00F00B0EE670A00F075
:1031D0002FF840F65403C2F20003D3ED017A4FF00A
:1031E0001000B0EE670A00F023F840F65403C2F274
:1031F0000003D3ED027A4FF01100B0EE670A00F041
:1032000017F800BF07F11007BD4680BDAFF300807F
:103210006666666666661A4000000000000014409C
:1032200085EB51B81EA54C40B81E8942000084426F
:1032300080B483B000AF786087ED000A4FF6BC33EE
:10324000C0F600037A684FEA82029B1893ED007A79
:103250004FF64C43C0F600037A684FEA82029B188F
:10326000D3ED006AD7ED007A76EEA77A27EE277ABB
:103270004FF60443C0F600037A6853F8223006EE96
:10328000903AF8EEE67A77EE277AFDEEE77A17EED7
:10329000903A194640F20003C2F200037A6843F8FC
:1032A000221007F10C07BD4680BC704780B500AF07
:1032B0004FF000004FF00001B2EE040AFFF778FB78
:1032C0004FF0320009F0C2F940F22C53C2F2000371
:1032D0001B6807EE103AF8EEC77A4FF001009FED39
:1032E000360AF1EE0C0AB0EE671AFFF751FD40F214
:1032F0002C53C2F200031B6807EE103AF8EEC77AAF
:103300004FF002009FED2C0AF1EE0C0AB0EE671AA6
:10331000FFF73EFD40F22C53C2F200031B6807EE9C
:10332000103AF8EEC77A4FF003009FED230AF1EE52
:103330000C0AB0EE671AFFF72BFD40F22C53C2F2D5
:1033400000031B6807EE103AF8EEC77A4FF004004E
:103350009FED190AF1EE0C0AB0EE671AFFF718FD9F
:1033600040F22C53C2F200031B6807EE103AF8EE4D
:10337000C77A4FF005009FED100AF1EE0C0AB0EE8F
:10338000671AFFF705FD40F22C53C2F200031B68D9
:1033900007EE103AF8EEC77A4FF006009FED060AE6
:1033A000F1EE0C0AB0EE671AFFF7F2FC4FF0640082
:1033B00009F04CF980BD00BF0000B44280B582B076
:1033C00000AF78604FF000004FF00001B2EE040A49
:1033D000FFF7EEFA4FF00A0009F038F97B68A3F125
:1033E00041030C2B01F26C8301A252F823F000BFC1
:1033F00025340008E3350008A13700085F390008CC
:103400001D3B0008DB3C0008993E000857400008BF
:1034100015420008D14300088D45000849470008BF
:103420000549000840F25803C2F200034FF096022B
:103430001A6040F25C03C2F200034FF01E021A60F1
:1034400040F25C03C2F200031B6806EE903AB8EE4D
:10345000E67A40F22C53C2F200031B6806EE903A63
:10346000F8EEE67A4FF00100B0EE470AF1EE0C0AF2
:10347000B0EE671AFFF78CFC40F25803C2F200036B
:103480001B6807EE903AB8EEE77A40F22C53C2F28E
:1034900000031B6806EE903AF8EEE67A4FF0020061
:1034A000B0EE470AF1EE0C0AB0EE671AFFF770FCB7
:1034B00040F25C03C2F200031B6807EE903AB8EEDC
:1034C000E77A40F22C53C2F200031B6806EE903AF2
:1034D000F8EEE67A4FF00300B0EE470AF1EE0C0A80
:1034E000B0EE671AFFF754FC40F25803C2F2000333
:1034F0001B6807EE903AB8EEE77A40F22C53C2F21E
:1035000000031B6806EE903AF8EEE67A4FF00400EE
:10351000B0EE470AF1EE0C0AB0EE671AFFF738FC7E
:1035200040F25C03C2F200031B6807EE903AB8EE6B
:10353000E77A40F22C53C2F200031B6806EE903A81
:10354000F8EEE67A4FF00500B0EE470AF1EE0C0A0D
:10355000B0EE671AFFF71CFC40F25803C2F20003FA
:103560001B6807EE903AB8EEE77A40F22C53C2F2AD
:1035700000031B6806EE903AF8EEE67A4FF006007C
:10358000B0EE470AF1EE0C0AB0EE671AFFF700FC46
:103590004FF0140009F05AF840F22073C2F2000311
:1035A0004FF000021A7040F22073C2F200034FF095
:1035B00000025A7040F22073C2F200034FF0000282
:1035C0009A704FF49040C4F2000040F25001C2F2F1
:1035D000000108F06FFC4FF0140009F037F801F01B
:1035E00070BA40F25803C2F200034FF08C021A6026
:1035F00040F25C03C2F200034FF028021A6040F26E
:103600005C03C2F200031B6807EE903AB8EEE77A5B
:1036100040F22C53C2F200031B6806EE903AF8EE1B
:10362000E67A4FF00100B0EE470AF1EE0C0AB0EE78
:10363000671AFFF7ADFB40F25803C2F200031B68A4
:1036400007EE903AB8EEE77A40F22C53C2F200034C
:103650001B6806EE903AF8EEE67A4FF00200B0EE04
:10366000470AF1EE0C0AB0EE671AFFF791FB40F241
:103670005C03C2F200031B6807EE903AB8EEE77AEB
:1036800040F22C53C2F200031B6806EE903AF8EEAB
:10369000E67A4FF00300B0EE470AF1EE0C0AB0EE06
:1036A000671AFFF775FB40F25803C2F200031B686C
:1036B00007EE903AB8EEE77A40F22C53C2F20003DC
:1036C0001B6806EE903AF8EEE67A4FF00400B0EE92
:1036D000470AF1EE0C0AB0EE671AFFF759FB40F209
:1036E0005C03C2F200031B6807EE903AB8EEE77A7B
:1036F00040F22C53C2F200031B6806EE903AF8EE3B
:10370000E67A4FF00500B0EE470AF1EE0C0AB0EE93
:10371000671AFFF73DFB40F25803C2F200031B6833
:1037200007EE903AB8EEE77A40F22C53C2F200036B
:103730001B6806EE903AF8EEE67A4FF00600B0EE1F
:10374000470AF1EE0C0AB0EE671AFFF721FB4FF0C3
:10375000140008F07BFF40F22073C2F200034FF028
:1037600000021A7040F22073C2F200034FF0000210
:103770005A7040F22073C2F200034FF000029A70B8
:103780004FF49040C4F2000040F25001C2F2000138
:1037900008F090FB4FF0140008F058FF01F091B9C9
:1037A00040F25803C2F200034FF082021A6040F266
:1037B0005C03C2F200034FF032021A6040F25C0375
:1037C000C2F200031B6807EE903AB8EEE77A40F2C7
:1037D0002C53C2F200031B6806EE903AF8EEE67A2C
:1037E0004FF00100B0EE470AF1EE0C0AB0EE671A96
:1037F000FFF7CEFA40F25803C2F200031B6807EE4F
:10380000903AB8EEE77A40F22C53C2F200031B68FC
:1038100006EE903AF8EEE67A4FF00200B0EE470A74
:10382000F1EE0C0AB0EE671AFFF7B2FA40F25C0351
:10383000C2F200031B6807EE903AB8EEE77A40F256
:103840002C53C2F200031B6806EE903AF8EEE67ABB
:103850004FF00300B0EE470AF1EE0C0AB0EE671A23
:10386000FFF796FA40F25803C2F200031B6807EE16
:10387000903AB8EEE77A40F22C53C2F200031B688C
:1038800006EE903AF8EEE67A4FF00400B0EE470A02
:10389000F1EE0C0AB0EE671AFFF77AFA40F25C0319
:1038A000C2F200031B6807EE903AB8EEE77A40F2E6
:1038B0002C53C2F200031B6806EE903AF8EEE67A4B
:1038C0004FF00500B0EE470AF1EE0C0AB0EE671AB1
:1038D000FFF75EFA40F25803C2F200031B6807EEDE
:1038E000903AB8EEE77A40F22C53C2F200031B681C
:1038F00006EE903AF8EEE67A4FF00600B0EE470A90
:10390000F1EE0C0AB0EE671AFFF742FA4FF014001E
:1039100008F09CFE40F22073C2F200034FF0000258
:103920001A7040F22073C2F200034FF000025A7086
:1039300040F22073C2F200034FF000029A704FF47D
:103940009040C4F2000040F25001C2F2000108F0C1
:10395000B1FA4FF0140008F079FE01F0B2B840F26D
:103960005803C2F200034FF078021A6040F25C0381
:10397000C2F200034FF03C021A6040F25C03C2F254
:1039800000031B6807EE903AB8EEE77A40F22C533A
:10399000C2F200031B6806EE903AF8EEE67A4FF0AA
:1039A0000100B0EE470AF1EE0C0AB0EE671AFFF71D
:1039B000EFF940F25803C2F200031B6807EE903A99
:1039C000B8EEE77A40F22C53C2F200031B6806EE11
:1039D000903AF8EEE67A4FF00200B0EE470AF1EEC8
:1039E0000C0AB0EE671AFFF7D3F940F25C03C2F29B
:1039F00000031B6807EE903AB8EEE77A40F22C53CA
:103A0000C2F200031B6806EE903AF8EEE67A4FF039
:103A10000300B0EE470AF1EE0C0AB0EE671AFFF7AA
:103A2000B7F940F25803C2F200031B6807EE903A60
:103A3000B8EEE77A40F22C53C2F200031B6806EEA0
:103A4000903AF8EEE67A4FF00400B0EE470AF1EE55
:103A50000C0AB0EE671AFFF79BF940F25C03C2F262
:103A600000031B6807EE903AB8EEE77A40F22C5359
:103A7000C2F200031B6806EE903AF8EEE67A4FF0C9
:103A80000500B0EE470AF1EE0C0AB0EE671AFFF738
:103A90007FF940F25803C2F200031B6807EE903A28
:103AA000B8EEE77A40F22C53C2F200031B6806EE30
:103AB000903AF8EEE67A4FF00600B0EE470AF1EEE3
:103AC0000C0AB0EE671AFFF763F94FF0140008F024
:103AD000BDFD40F22073C2F200034FF000021A70E5
:103AE00040F22073C2F200034FF000025A7040F21D
:103AF0002073C2F200034FF000029A704FF490401E
:103B0000C4F2000040F25001C2F2000108F0D2F904
:103B10004FF0140008F09AFD00F0D3BF40F25803B4
:103B2000C2F200034FF06E021A6040F25C03C2F270
:103B300000034FF046021A6040F25C03C2F2000339
:103B40001B6807EE903AB8EEE77A40F22C53C2F2C7
:103B500000031B6806EE903AF8EEE67A4FF001009B
:103B6000B0EE470AF1EE0C0AB0EE671AFFF710F953
:103B700040F25803C2F200031B6807EE903AB8EE19
:103B8000E77A40F22C53C2F200031B6806EE903A2B
:103B9000F8EEE67A4FF00200B0EE470AF1EE0C0ABA
:103BA000B0EE671AFFF7F4F840F25C03C2F20003CC
:103BB0001B6807EE903AB8EEE77A40F22C53C2F257
:103BC00000031B6806EE903AF8EEE67A4FF0030029
:103BD000B0EE470AF1EE0C0AB0EE671AFFF7D8F81C
:103BE00040F25803C2F200031B6807EE903AB8EEA9
:103BF000E77A40F22C53C2F200031B6806EE903ABB
:103C0000F8EEE67A4FF00400B0EE470AF1EE0C0A47
:103C1000B0EE671AFFF7BCF840F25C03C2F2000393
:103C20001B6807EE903AB8EEE77A40F22C53C2F2E6
:103C300000031B6806EE903AF8EEE67A4FF00500B6
:103C4000B0EE470AF1EE0C0AB0EE671AFFF7A0F8E3
:103C500040F25803C2F200031B6807EE903AB8EE38
:103C6000E77A40F22C53C2F200031B6806EE903A4A
:103C7000F8EEE67A4FF00600B0EE470AF1EE0C0AD5
:103C8000B0EE671AFFF784F84FF0140008F0DEFC7E
:103C900040F22073C2F200034FF000021A7040F2AB
:103CA0002073C2F200034FF000025A7040F22073FA
:103CB000C2F200034FF000029A704FF49040C4F239
:103CC000000040F25001C2F2000108F0F3F84FF09A
:103CD000140008F0BBFC00F0F4BE40F25803C2F23E
:103CE00000034FF064021A6040F25C03C2F200036A
:103CF0004FF050021A6040F25C03C2F200031B68EE
:103D000007EE903AB8EEE77A40F22C53C2F2000385
:103D10001B6806EE903AF8EEE67A4FF00100B0EE3E
:103D2000470AF1EE0C0AB0EE671AFFF731F840F2DD
:103D30005803C2F200031B6807EE903AB8EEE77A28
:103D400040F22C53C2F200031B6806EE903AF8EEE4
:103D5000E67A4FF00200B0EE470AF1EE0C0AB0EE40
:103D6000671AFFF715F840F25C03C2F200031B6804
:103D700007EE903AB8EEE77A40F22C53C2F2000315
:103D80001B6806EE903AF8EEE67A4FF00300B0EECC
:103D9000470AF1EE0C0AB0EE671AFEF7F9FF40F29F
:103DA0005803C2F200031B6807EE903AB8EEE77AB8
:103DB00040F22C53C2F200031B6806EE903AF8EE74
:103DC000E67A4FF00400B0EE470AF1EE0C0AB0EECE
:103DD000671AFEF7DDFF40F25C03C2F200031B68C6
:103DE00007EE903AB8EEE77A40F22C53C2F20003A5
:103DF0001B6806EE903AF8EEE67A4FF00500B0EE5A
:103E0000470AF1EE0C0AB0EE671AFEF7C1FF40F266
:103E10005803C2F200031B6807EE903AB8EEE77A47
:103E200040F22C53C2F200031B6806EE903AF8EE03
:103E3000E67A4FF00600B0EE470AF1EE0C0AB0EE5B
:103E4000671AFEF7A5FF4FF0140008F0FFFB40F2E1
:103E50002073C2F200034FF000021A7040F2207388
:103E6000C2F200034FF000025A7040F22073C2F217
:103E700000034FF000029A704FF49040C4F200002B
:103E800040F25001C2F2000108F014F84FF01400A3
:103E900008F0DCFB00F015BE40F25803C2F200034C
:103EA0004FF05A021A6040F25C03C2F200034FF076
:103EB0005A021A6040F25C03C2F200031B6807EE6C
:103EC000903AB8EEE77A40F22C53C2F200031B6836
:103ED00006EE903AF8EEE67A4FF00100B0EE470AAF
:103EE000F1EE0C0AB0EE671AFEF752FF40F25803EB
:103EF000C2F200031B6807EE903AB8EEE77A40F290
:103F00002C53C2F200031B6806EE903AF8EEE67AF4
:103F10004FF00200B0EE470AF1EE0C0AB0EE671A5D
:103F2000FEF736FF40F25C03C2F200031B6807EEA7
:103F3000903AB8EEE77A40F22C53C2F200031B68C5
:103F400006EE903AF8EEE67A4FF00300B0EE470A3C
:103F5000F1EE0C0AB0EE671AFEF71AFF40F25803B2
:103F6000C2F200031B6807EE903AB8EEE77A40F21F
:103F70002C53C2F200031B6806EE903AF8EEE67A84
:103F80004FF00400B0EE470AF1EE0C0AB0EE671AEB
:103F9000FEF7FEFE40F25C03C2F200031B6807EE70
:103FA000903AB8EEE77A40F22C53C2F200031B6855
:103FB00006EE903AF8EEE67A4FF00500B0EE470ACA
:103FC000F1EE0C0AB0EE671AFEF7E2FE40F258037B
:103FD000C2F200031B6807EE903AB8EEE77A40F2AF
:103FE0002C53C2F200031B6806EE903AF8EEE67A14
:103FF0004FF00600B0EE470AF1EE0C0AB0EE671A79
:10400000FEF7C6FE4FF0140008F020FB40F22073CC
:10401000C2F200034FF000021A7040F22073C2F2A5
:1040200000034FF000025A7040F22073C2F2000306
:104030004FF000029A704FF49040C4F2000040F23A
:104040005001C2F2000107F035FF4FF0140008F0F4
:10405000FDFA00F036BD40F25803C2F200034FF003
:1040600050021A6040F25C03C2F200034FF0640297
:104070001A6040F25C03C2F200031B6807EE903A3C
:10408000B8EEE77A40F22C53C2F200031B6806EE4A
:10409000903AF8EEE67A4FF00100B0EE470AF1EE02
:1040A0000C0AB0EE671AFEF773FE40F25803C2F234
:1040B00000031B6807EE903AB8EEE77A40F22C5303
:1040C000C2F200031B6806EE903AF8EEE67A4FF073
:1040D0000200B0EE470AF1EE0C0AB0EE671AFEF7E6
:1040E00057FE40F25C03C2F200031B6807EE903AF1
:1040F000B8EEE77A40F22C53C2F200031B6806EEDA
:10410000903AF8EEE67A4FF00300B0EE470AF1EE8F
:104110000C0AB0EE671AFEF73BFE40F25803C2F2FB
:1041200000031B6807EE903AB8EEE77A40F22C5392
:10413000C2F200031B6806EE903AF8EEE67A4FF002
:104140000400B0EE470AF1EE0C0AB0EE671AFEF773
:104150001FFE40F25C03C2F200031B6807EE903AB8
:10416000B8EEE77A40F22C53C2F200031B6806EE69
:10417000903AF8EEE67A4FF00500B0EE470AF1EE1D
:104180000C0AB0EE671AFEF703FE40F25803C2F2C3
:1041900000031B6807EE903AB8EEE77A40F22C5322
:1041A000C2F200031B6806EE903AF8EEE67A4FF092
:1041B0000600B0EE470AF1EE0C0AB0EE671AFEF701
:1041C000E7FD4FF0140008F041FA40F22073C2F20C
:1041D00000034FF000021A7040F22073C2F2000395
:1041E0004FF000025A7040F22073C2F200034FF009
:1041F00000029A704FF49040C4F2000040F2500167
:10420000C2F2000107F056FE4FF0140008F01EFA4B
:1042100000F057BC40F25803C2F200034FF04602D0
:104220001A6040F25C03C2F200034FF06E021A60A3
:1042300040F25C03C2F200031B6807EE903AB8EE4E
:10424000E77A40F22C53C2F200031B6806EE903A64
:10425000F8EEE67A4FF00100B0EE470AF1EE0C0AF4
:10426000B0EE671AFEF794FD40F25803C2F2000365
:104270001B6807EE903AB8EEE77A40F22C53C2F290
:1042800000031B6806EE903AF8EEE67A4FF0020063
:10429000B0EE470AF1EE0C0AB0EE671AFEF778FDB1
:1042A00040F25C03C2F200031B6807EE903AB8EEDE
:1042B000E77A40F22C53C2F200031B6806EE903AF4
:1042C000F8EEE67A4FF00300B0EE470AF1EE0C0A82
:1042D000B0EE671AFEF75CFD40F25803C2F200032D
:1042E0001B6807EE903AB8EEE77A40F22C53C2F220
:1042F00000031B6806EE903AF8EEE67A4FF00400F1
:10430000B0EE470AF1EE0C0AB0EE671AFEF740FD78
:1043100040F25C03C2F200031B6807EE903AB8EE6D
:10432000E77A40F22C53C2F200031B6806EE903A83
:10433000F8EEE67A4FF00500B0EE470AF1EE0C0A0F
:10434000B0EE671AFEF724FD40F25803C2F20003F4
:104350001B6807EE903AB8EEE77A40F22C53C2F2AF
:1043600000031B6806EE903AF8EEE67A4FF006007E
:10437000B0EE470AF1EE0C0AB0EE671AFEF708FD40
:104380004FF0140008F062F940F22073C2F200030B
:104390004FF000021A7040F22073C2F200034FF097
:1043A00000025A7040F22073C2F200034FF0000284
:1043B0009A704FF49040C4F2000040F25001C2F2F3
:1043C000000107F077FD4FF0140008F03FF978E3A3
:1043D00040F25803C2F200034FF03C021A6040F270
:1043E0005C03C2F200034FF078021A6040F25C03F3
:1043F000C2F200031B6807EE903AB8EEE77A40F28B
:104400002C53C2F200031B6806EE903AF8EEE67AEF
:104410004FF00100B0EE470AF1EE0C0AB0EE671A59
:10442000FEF7B6FC40F25803C2F200031B6807EE29
:10443000903AB8EEE77A40F22C53C2F200031B68C0
:1044400006EE903AF8EEE67A4FF00200B0EE470A38
:10445000F1EE0C0AB0EE671AFEF79AFC40F25C032C
:10446000C2F200031B6807EE903AB8EEE77A40F21A
:104470002C53C2F200031B6806EE903AF8EEE67A7F
:104480004FF00300B0EE470AF1EE0C0AB0EE671AE7
:10449000FEF77EFC40F25803C2F200031B6807EEF1
:1044A000903AB8EEE77A40F22C53C2F200031B6850
:1044B00006EE903AF8EEE67A4FF00400B0EE470AC6
:1044C000F1EE0C0AB0EE671AFEF762FC40F25C03F4
:1044D000C2F200031B6807EE903AB8EEE77A40F2AA
:1044E0002C53C2F200031B6806EE903AF8EEE67A0F
:1044F0004FF00500B0EE470AF1EE0C0AB0EE671A75
:10450000FEF746FC40F25803C2F200031B6807EEB8
:10451000903AB8EEE77A40F22C53C2F200031B68DF
:1045200006EE903AF8EEE67A4FF00600B0EE470A53
:10453000F1EE0C0AB0EE671AFEF72AFC4FF01400F9
:1045400008F084F840F22073C2F200034FF000023A
:104550001A7040F22073C2F200034FF000025A704A
:1045600040F22073C2F200034FF000029A704FF441
:104570009040C4F2000040F25001C2F2000107F086
:1045800099FC4FF0140008F061F89AE240F25803E9
:10459000C2F200034FF032021A6040F25C03C2F232
:1045A00000034FF082021A6040F25C03C2F2000383
:1045B0001B6807EE903AB8EEE77A40F22C53C2F24D
:1045C00000031B6806EE903AF8EEE67A4FF0010021
:1045D000B0EE470AF1EE0C0AB0EE671AFEF7D8FB10
:1045E00040F25803C2F200031B6807EE903AB8EE9F
:1045F000E77A40F22C53C2F200031B6806EE903AB1
:10460000F8EEE67A4FF00200B0EE470AF1EE0C0A3F
:10461000B0EE671AFEF7BCFB40F25C03C2F2000387
:104620001B6807EE903AB8EEE77A40F22C53C2F2DC
:1046300000031B6806EE903AF8EEE67A4FF00300AE
:10464000B0EE470AF1EE0C0AB0EE671AFEF7A0FBD7
:1046500040F25803C2F200031B6807EE903AB8EE2E
:10466000E77A40F22C53C2F200031B6806EE903A40
:10467000F8EEE67A4FF00400B0EE470AF1EE0C0ACD
:10468000B0EE671AFEF784FB40F25C03C2F200034F
:104690001B6807EE903AB8EEE77A40F22C53C2F26C
:1046A00000031B6806EE903AF8EEE67A4FF005003C
:1046B000B0EE470AF1EE0C0AB0EE671AFEF768FB9F
:1046C00040F25803C2F200031B6807EE903AB8EEBE
:1046D000E77A40F22C53C2F200031B6806EE903AD0
:1046E000F8EEE67A4FF00600B0EE470AF1EE0C0A5B
:1046F000B0EE671AFEF74CFB4FF0140007F0A6FF70
:1047000040F22073C2F200034FF000021A7040F230
:104710002073C2F200034FF000025A7040F220737F
:10472000C2F200034FF000029A704FF49040C4F2BE
:10473000000040F25001C2F2000107F0BBFB4FF055
:10474000140007F083FFBCE140F25803C2F20003FB
:104750004FF028021A6040F25C03C2F200034FF0EF
:104760008C021A6040F25C03C2F200031B6807EE81
:10477000903AB8EEE77A40F22C53C2F200031B687D
:1047800006EE903AF8EEE67A4FF00100B0EE470AF6
:10479000F1EE0C0AB0EE671AFEF7FAFA40F258038F
:1047A000C2F200031B6807EE903AB8EEE77A40F2D7
:1047B0002C53C2F200031B6806EE903AF8EEE67A3C
:1047C0004FF00200B0EE470AF1EE0C0AB0EE671AA5
:1047D000FEF7DEFA40F25C03C2F200031B6807EE4C
:1047E000903AB8EEE77A40F22C53C2F200031B680D
:1047F00006EE903AF8EEE67A4FF00300B0EE470A84
:10480000F1EE0C0AB0EE671AFEF7C2FA40F2580356
:10481000C2F200031B6807EE903AB8EEE77A40F266
:104820002C53C2F200031B6806EE903AF8EEE67ACB
:104830004FF00400B0EE470AF1EE0C0AB0EE671A32
:10484000FEF7A6FA40F25C03C2F200031B6807EE13
:10485000903AB8EEE77A40F22C53C2F200031B689C
:1048600006EE903AF8EEE67A4FF00500B0EE470A11
:10487000F1EE0C0AB0EE671AFEF78AFA40F258031E
:10488000C2F200031B6807EE903AB8EEE77A40F2F6
:104890002C53C2F200031B6806EE903AF8EEE67A5B
:1048A0004FF00600B0EE470AF1EE0C0AB0EE671AC0
:1048B000FEF76EFA4FF0140007F0C8FE40F22073C6
:1048C000C2F200034FF000021A7040F22073C2F2ED
:1048D00000034FF000025A7040F22073C2F200034E
:1048E0004FF000029A704FF49040C4F2000040F282
:1048F0005001C2F2000107F0DDFA4FF0140007F09A
:10490000A5FEDEE040F25803C2F200034FF01E02A3
:104910001A6040F25C03C2F200034FF096021A6084
:1049200040F25C03C2F200031B6807EE903AB8EE57
:10493000E77A40F22C53C2F200031B6806EE903A6D
:10494000F8EEE67A4FF00100B0EE470AF1EE0C0AFD
:10495000B0EE671AFEF71CFA40F25803C2F20003E9
:104960001B6807EE903AB8EEE77A40F22C53C2F299
:1049700000031B6806EE903AF8EEE67A4FF002006C
:10498000B0EE470AF1EE0C0AB0EE671AFEF700FA35
:1049900040F25C03C2F200031B6807EE903AB8EEE7
:1049A000E77A40F22C53C2F200031B6806EE903AFD
:1049B000F8EEE67A4FF00300B0EE470AF1EE0C0A8B
:1049C000B0EE671AFEF7E4F940F25803C2F20003B2
:1049D0001B6807EE903AB8EEE77A40F22C53C2F229
:1049E00000031B6806EE903AF8EEE67A4FF00400FA
:1049F000B0EE470AF1EE0C0AB0EE671AFEF7C8F9FE
:104A000040F25C03C2F200031B6807EE903AB8EE76
:104A1000E77A40F22C53C2F200031B6806EE903A8C
:104A2000F8EEE67A4FF00500B0EE470AF1EE0C0A18
:104A3000B0EE671AFEF7ACF940F25803C2F2000379
:104A40001B6807EE903AB8EEE77A40F22C53C2F2B8
:104A500000031B6806EE903AF8EEE67A4FF0060087
:104A6000B0EE470AF1EE0C0AB0EE671AFEF790F9C5
:104A70004FF0140007F0EAFD40F22073C2F2000389
:104A80004FF000021A7040F22073C2F200034FF0A0
:104A900000025A7040F22073C2F200034FF000028D
:104AA0009A704FF49040C4F2000040F25001C2F2FC
:104AB000000107F0FFF94FF0140007F0C7FD00E018
:104AC00000BF07F10807BD4680BD00BF80B584B0B8
:104AD00000AF786039607A6846F26763C6F2666351
:104AE00083FB02134FEA63014FEAE273CB1ABB6008
:104AF0004FF000004FF00501B2EE040AFDF758FF39
:104B00004FF0320007F0A2FD4FF00103FB6000F010
:104B100015BC40F22C53C2F200031B6806EE903A1B
:104B2000F8EEE67A4FF001009FEDF30AF1EE0C0A81
:104B3000B0EE671AFEF72CF940F27873C2F2000368
:104B400093ED037ADFEDEC7A37EE277A40F22C53BF
:104B5000C2F200031B68A3F1030306EE903AF8EEDD
:104B6000E67A4FF00200B0EE470AF2EE040AB0EE29
:104B7000671AFEF70DF940F27873C2F2000393ED65
:104B8000017ADFEDDD7A37EE277A40F22C53C2F25C
:104B900000031B68A3F1030306EE903AF8EEE67AF1
:104BA0004FF00300B0EE470AF2EE040AB0EE671AC7
:104BB000FEF7EEF840F22C53C2F200031B6807EE3A
:104BC000103AF8EEC77A4FF004009FEDCB0AF1EEF1
:104BD0000C0AB0EE671AFEF7DBF840F22C53C2F273
:104BE00000031B6806EE903AF8EEE67A4FF00500F7
:104BF0009FEDC10AF1EE0C0AB0EE671AFEF7C8F895
:104C000040F27873C2F2000393ED057ADFEDBA7AD1
:104C100037EE277A40F22C53C2F200031B68A3F14F
:104C2000030306EE903AF8EEE67A4FF00600B0EE97
:104C3000470AF2EE040AB0EE671AFEF7A9F83B68DD
:104C4000184607F003FD40F27873C2F2000393EDBB
:104C5000007ADFEDA97A37EE277A40F22C53C2F2C0
:104C600000031B6806EE903AF8EEE67A4FF001007A
:104C7000B0EE470AF1EE0C0AB0EE671AFEF788F8BC
:104C800040F27873C2F20003D3ED037A9FED9A7A73
:104C900037EE677A40F22C53C2F200031B68A3F18F
:104CA000030306EE903AF8EEE67A4FF00200B0EE1B
:104CB000470AF2EE040AB0EE671AFEF769F840F20E
:104CC0007873C2F20003D3ED017A9FED8B7A37EE51
:104CD000677A40F22C53C2F200031B68A3F103036E
:104CE00006EE903AF8EEE67A4FF00300B0EE470A8F
:104CF000F2EE040AB0EE671AFEF74AF840F2787353
:104D0000C2F2000393ED047ADFED7B7A37EE277A67
:104D100040F22C53C2F200031B6806EE903AF8EE04
:104D2000E67A4FF00400B0EE470AF1EE0C0AB0EE5E
:104D3000671AFEF72DF840F27873C2F2000393ED84
:104D4000027ADFED6D7A37EE277A40F22C53C2F209
:104D500000031B6806EE903AF8EEE67A4FF0050085
:104D6000B0EE470AF1EE0C0AB0EE671AFEF710F843
:104D700040F27873C2F20003D3ED057A9FED5E7ABC
:104D800037EE677A40F22C53C2F200031B68A3F19E
:104D9000030306EE903AF8EEE67A4FF00600B0EE26
:104DA000470AF2EE040AB0EE671AFDF7F1FF3B681E
:104DB000184607F04BFC40F27873C2F2000393ED03
:104DC000007ADFED4D7A37EE277A40F22C53C2F2AB
:104DD00000031B6806EE903AF8EEE67A4FF0010009
:104DE000B0EE470AF1EE0C0AB0EE671AFDF7D0FFFD
:104DF00040F27873C2F20003D3ED037A9FED3E7A5E
:104E000037EE677A40F22C53C2F200031B6806EEBD
:104E1000903AF8EEE67A4FF00200B0EE470AF1EE73
:104E20000C0AB0EE671AFDF7B3FF40F27873C2F2D6
:104E30000003D3ED017A9FED307A37EE677A40F2C6
:104E40002C53C2F200031B6806EE903AF8EEE67AA5
:104E50004FF00300B0EE470AF1EE0C0AB0EE671A0D
:104E6000FDF796FF40F27873C2F2000393ED047AE7
:104E7000DFED217A37EE277A40F22C53C2F200039D
:104E80001B6806EE903AF8EEE67A4FF00400B0EEBA
:104E9000470AF1EE0C0AB0EE671AFDF779FF40F20F
:104EA0007873C2F2000393ED027ADFED137A37EEE6
:104EB000277A40F22C53C2F200031B6806EE903AA8
:104EC000F8EEE67A4FF00500B0EE470AF1EE0C0A74
:104ED000B0EE671AFDF75CFF40F27873C2F2000390
:104EE000D3ED057A9FED047A37EE677A40F22C53C2
:104EF000C2F200031B6803E00000B4420000B442A9
:104F000006EE903AF8EEE67A4FF00600B0EE470A69
:104F1000F1EE0C0AB0EE671AFDF73AFF3B6818464F
:104F200007F094FB40F27873C2F2000393ED007A2D
:104F30005FED0E7A37EE277A40F22C53C2F200036F
:104F40001B68A3F1030306EE903AF8EEE67A4FF001
:104F50000100B0EE470AF2EE040AB0EE671AFDF760
:104F600017FF40F22C53C2F200031B6807EE103A01
:104F7000F8EEC77A4FF002001FED200AF1EE0C0A9E
:104F8000B0EE671AFDF704FF40F22C53C2F20003A3
:104F90001B6806EE903AF8EEE67A4FF003001FED3C
:104FA000290AF1EE0C0AB0EE671AFDF7F1FE40F2A5
:104FB0007873C2F2000393ED047A5FED307A37EE36
:104FC000277A40F22C53C2F200031B68A3F10303BB
:104FD00006EE903AF8EEE67A4FF00400B0EE470A9B
:104FE000F2EE040AB0EE671AFDF7D2FE40F27873D3
:104FF000C2F2000393ED027A5FED407A37EE277A32
:1050000040F22C53C2F200031B68A3F1020306EE28
:10501000903AF8EEE67A4FF00500B0EE470AF1EE6E
:105020000C0AB0EE671AFDF7B3FE40F22C53C2F241
:1050300000031B6807EE103AF8EEC77A4FF006003F
:105040001FED520AF1EE0C0AB0EE671AFDF7A0FE52
:105050003B68184607F0FAFA40F27873C2F2000390
:10506000D3ED007A1FED5B7A37EE677AF1EE047AC2
:1050700037EE677A40F22C53C2F200031B68A3F1AB
:10508000030306EE903AF8EEE67A4FF00100B0EE38
:10509000470AF2EE040AB0EE671AFDF779FE40F215
:1050A0007873C2F2000393ED037A5FED6C7A37EE0A
:1050B000277A40F22C53C2F200031B6806EE903AA6
:1050C000F8EEE67A4FF00200B0EE470AF1EE0C0A75
:1050D000B0EE671AFDF75CFE40F27873C2F200038F
:1050E00093ED017A5FED7B7A37EE277A40F22C530D
:1050F000C2F200031B6806EE903AF8EEE67A4FF033
:105100000300B0EE470AF1EE0C0AB0EE671AFDF7A5
:105110003FFE40F27873C2F20003D3ED047A1FED34
:10512000897A37EE677A40F22C53C2F200031B688B
:10513000A3F1030306EE903AF8EEE67A4FF004008E
:10514000B0EE470AF2EE040AB0EE671AFDF720FE51
:1051500040F27873C2F20003D3ED027A1FED997A20
:1051600037EE677A40F22C53C2F200031B68A3F1BA
:10517000020306EE903AF8EEE67A4FF00500B0EE44
:10518000470AF1EE0C0AB0EE671AFDF701FE40F295
:105190007873C2F2000393ED057A5FEDA87A37EEDB
:1051A000277A40F22C53C2F200031B6806EE903AB5
:1051B000F8EEE67A4FF00600B0EE470AF1EE0C0A80
:1051C000B0EE671AFDF7E4FD3B68184607F03EFABB
:1051D00040F27873C2F20003D3ED007A1FEDB97A82
:1051E00037EE677A40F22C53C2F200031B6806EEDA
:1051F000903AF8EEE67A4FF00100B0EE470AF1EE91
:105200000C0AB0EE671AFDF7C3FD40F27873C2F2E4
:10521000000393ED037A5FEDC77A37EE277A40F209
:105220002C53C2F200031B6806EE903AF8EEE67AC1
:105230004FF00200B0EE470AF1EE0C0AB0EE671A2A
:10524000FDF7A6FD40F27873C2F2000393ED017AF8
:105250005FEDD67A37EE277A40F22C53C2F2000384
:105260001B6806EE903AF8EEE67A4FF00300B0EED7
:10527000470AF1EE0C0AB0EE671AFDF789FD40F21D
:105280007873C2F20003D3ED047A1FEDE47A37EEAF
:10529000677A40F22C53C2F200031B6806EE903A84
:1052A000F8EEE67A4FF00400B0EE470AF1EE0C0A91
:1052B000B0EE671AFDF76CFD40F27873C2F200039E
:1052C000D3ED027A9FED227A37EE677A40F22C53C3
:1052D000C2F200031B6806EE903AF8EEE67A4FF051
:1052E0000500B0EE470AF1EE0C0AB0EE671AFDF7C2
:1052F0004FFD40F27873C2F2000393ED057ADFEDC3
:10530000147A37EE277A40F22C53C2F200031B685E
:1053100006EE903AF8EEE67A4FF00600B0EE470A55
:10532000F1EE0C0AB0EE671AFDF732FD3B68184645
:1053300007F08CF9FB6803F10103FB60FA68BB68B6
:105340009A427FF7E6AB07F11007BD4680BD00BF6C
:105350000000B44280B584B000AF786039607A68EC
:1053600046F26763C6F2666383FB02134FEA63018A
:105370004FEAE273CB1ABB604FF000006FF00401FC
:10538000B2EE040AFDF714FB4FF0320007F05EF9AD
:105390004FF00103FB6000F089BC40F22C53C2F2D5
:1053A00000031B6806EE903AF8EEE67A4FF0010033
:1053B0009FEDF40AF1EE0C0AB0EE671AFDF7E8FC77
:1053C00040F27873C2F2000393ED037ADFEDED7AD9
:1053D00037EE277AF1EE0C7A37EE677A40F22C53EB
:1053E000C2F200031B68A3F1030306EE903AF8EE45
:1053F000E67A4FF00200B0EE470AF2EE040AB0EE91
:10540000671AFDF7C5FC40F27873C2F2000393ED12
:10541000047ADFEDDC7A37EE277AF1EE047A37EEA4
:10542000677A40F22C53C2F200031B68A3F1030316
:1054300006EE903AF8EEE67A4FF00300B0EE470A37
:10544000F2EE040AB0EE671AFDF7A2FC40F22C530C
:10545000C2F200031B6807EE103AF8EEC77A4FF06D
:1054600004009FEDC80AF1EE0C0AB0EE671AFDF7D2
:105470008FFC40F22C53C2F200031B6806EE903AF8
:10548000F8EEE67A4FF005009FEDBE0AF1EE0C0A49
:10549000B0EE671AFDF77CFC40F27873C2F20003AD
:1054A00093ED057ADFEDB77A37EE277AF2EE087AD8
:1054B00037EE277A40F22C53C2F200031B68A3F1A7
:1054C000030306EE903AF8EEE67A4FF00600B0EEEF
:1054D000470AF2EE040AB0EE671AFDF759FC3B6882
:1054E000184607F0B3F840F27873C2F2000393ED68
:1054F000007ADFEDA47A37EE277AF0EE007A37EE05
:10550000677A40F22C53C2F200031B6806EE903A11
:10551000F8EEE67A4FF00100B0EE470AF1EE0C0A21
:10552000B0EE671AFDF734FC40F27873C2F2000364
:10553000D3ED037A9FED937A37EE677AF7EE007A30
:1055400037EE277A40F22C53C2F200031B68A3F116
:10555000030306EE903AF8EEE67A4FF00200B0EE62
:10556000470AF2EE040AB0EE671AFDF711FC40F2AA
:105570007873C2F20003D3ED017A9FED827A37EEA1
:10558000677AF1EE0C7A37EE677A40F22C53C2F26A
:1055900000031B68A3F1030306EE903AF8EEE67AE7
:1055A0004FF00300B0EE470AF2EE040AB0EE671ABD
:1055B000FDF7EEFB40F27873C2F2000393ED047A3C
:1055C000DFED707A37EE277AF1EE047A37EE677AFC
:1055D00040F22C53C2F200031B6806EE903AF8EE3C
:1055E000E67A4FF00400B0EE470AF1EE0C0AB0EE96
:1055F000671AFDF7CDFB40F27873C2F2000393ED1A
:10560000027ADFED607A37EE277AF2EE007A37EE33
:10561000277A40F22C53C2F200031B6806EE903A40
:10562000F8EEE67A4FF00500B0EE470AF1EE0C0A0C
:10563000B0EE671AFDF7ACFB40F27873C2F20003DC
:10564000D3ED057A9FED4F7A37EE677AF2EE067A60
:1056500037EE277A40F22C53C2F200031B68A3F105
:10566000030306EE903AF8EEE67A4FF00600B0EE4D
:10567000470AF2EE040AB0EE671AFDF789FB3B68B1
:10568000184606F0E3FF40F27873C2F2000393ED90
:10569000007ADFED3C7A37EE277AF0EE007A37EECB
:1056A000677A40F22C53C2F200031B6806EE903A70
:1056B000F8EEE67A4FF00100B0EE470AF1EE0C0A80
:1056C000B0EE671AFDF764FB40F27873C2F2000394
:1056D000D3ED037A9FED2B7A37EE677AF7EE007AF7
:1056E00037EE277A40F22C53C2F200031B6806EE15
:1056F000903AF8EEE67A4FF00200B0EE470AF1EE8B
:105700000C0AB0EE671AFDF743FB40F27873C2F261
:105710000003D3ED017A9FED1B7A37EE677AF1EE45
:105720000C7A37EE677A40F22C53C2F200031B6802
:1057300006EE903AF8EEE67A4FF00300B0EE470A34
:10574000F1EE0C0AB0EE671AFDF722FB40F2787317
:10575000C2F2000393ED047ADFED0A7A37EE277A7E
:10576000F1EE047A37EE677A40F22C53C2F200036E
:105770001B6806EE903AF8EEE67A4FF00400B0EEC1
:10578000470A03E00000B4420000B442F1EE0C0A04
:10579000B0EE671AFDF7FCFA40F27873C2F200032C
:1057A00093ED027A5FED087A37EE277AF2EE007A0F
:1057B00037EE277A40F22C53C2F200031B6806EE44
:1057C000903AF8EEE67A4FF00500B0EE470AF1EEB7
:1057D0000C0AB0EE671AFDF7DBFA40F27873C2F2FA
:1057E0000003D3ED057A1FED187A37EE677AF2EEF3
:1057F000067A37EE277A40F22C53C2F200031B6878
:1058000006EE903AF8EEE67A4FF00600B0EE470A60
:10581000F1EE0C0AB0EE671AFDF7BAFA3B681846CB
:1058200006F014FF40F27873C2F2000393ED007AA1
:105830005FED2B7A37EE277AF0EE007A37EE677A53
:1058400040F22C53C2F200031B68A3F1030306EEDF
:10585000903AF8EEE67A4FF00100B0EE470AF2EE29
:10586000040AB0EE671AFDF793FA40F22C53C2F225
:1058700000031B6807EE103AF8EEC77A4FF00200FB
:105880001FED3F0AF1EE0C0AB0EE671AFDF780FA41
:1058900040F22C53C2F200031B6806EE903AF8EE79
:1058A000E67A4FF003001FED480AF1EE0C0AB0EE65
:1058B000671AFDF76DFA40F27873C2F2000393EDB8
:1058C000047A5FED4F7A37EE277AF1EE047A37EEFD
:1058D000677A40F22C53C2F200031B68A3F1030362
:1058E00006EE903AF8EEE67A4FF00400B0EE470A82
:1058F000F2EE050AB0EE671AFDF74AFA40F2787345
:10590000C2F2000393ED027A5FED617A37EE277AF7
:10591000F2EE007A37EE277A40F22C53C2F20003FF
:105920001B68A3F1030306EE903AF8EEE67A4FF017
:105930000500B0EE470AF2EE040AB0EE671AFDF772
:1059400027FA40F22C53C2F200031B6807EE103A0C
:10595000F8EEC77A4FF006001FED750AF1EE0C0A5B
:10596000B0EE671AFDF714FA3B68184606F06EFEB3
:1059700040F27873C2F20003D3ED007A1FED7E7A15
:1059800037EE677AF2EE007A37EE277A40F22C5340
:10599000C2F200031B68A3F1030306EE903AF8EE8F
:1059A000E67A4FF00100B0EE470AF2EE040AB0EEDC
:1059B000671AFDF7EDF940F27873C2F2000393ED38
:1059C000037A5FED8F7A37EE277AF1EE0C7A37EEB5
:1059D000677A40F22C53C2F200031B6806EE903A3D
:1059E000F8EEE67A4FF00200B0EE470AF1EE0C0A4C
:1059F000B0EE671AFDF7CCF940F27873C2F20003FB
:105A000093ED017A5FEDA07A37EE277AF2EE047A11
:105A100037EE677A40F22C53C2F200031B6806EEA1
:105A2000903AF8EEE67A4FF00300B0EE470AF1EE56
:105A30000C0AB0EE671AFDF7ABF940F27873C2F2C8
:105A40000003D3ED047A1FEDB07A37EE677AF1EEFA
:105A5000047A37EE677A40F22C53C2F200031B68D7
:105A6000A3F1030306EE903AF8EEE67A4FF0040055
:105A7000B0EE470AF2EE050AB0EE671AFDF788F9B4
:105A800040F27873C2F20003D3ED027A1FEDC27ABE
:105A900037EE677AF1EE047A37EE277A40F22C532C
:105AA000C2F200031B68A3F1030306EE903AF8EE7E
:105AB000E67A4FF00500B0EE470AF2EE040AB0EEC7
:105AC000671AFDF765F940F27873C2F2000393EDAF
:105AD000057A5FEDD37A37EE277AF2EE087A37EE61
