:020000040800F2
:10000000003C002029110008A11100085732000807
:10001000A1110008A1110008A111000800000000B2
:10002000000000000000000000000000A111000816
:10003000A111000800000000A1110008D526000849
:10004000A1110008A1110008A1110008A1110008C8
:10005000A1110008A1110008A1110008A1110008B8
:10006000A1110008A1110008A1110008A1110008A8
:10007000A1110008A1110008A1110008A111000898
:10008000A1110008A1110008A1110008A111000888
:10009000A1110008A1110008A1110008A111000878
:1000A000A1110008A1110008A1110008A111000868
:1000B000A1110008C5560108A1110008A1110008EE
:1000C000A1110008A1110008A1110008A111000848
:1000D000A11100080D0F0008A11100089DF90108E9
:1000E000A1110008A1110008A1110008A111000828
:1000F000A1110008A1110008A1110008A111000818
:10010000A1110008A1110008354D0108A111000836
:10011000A1110008A1110008A1110008A1110008F7
:10012000A1110008A1110008A1110008A1110008E7
:10013000A1110008A1110008A1110008A1110008D7
:10014000A1110008A1110008A1110008A1110008C7
:10015000A1110008A1110008A1110008A1110008B7
:10016000A1110008A1110008A1110008A1110008A7
:10017000A1110008A1110008A1110008A111000897
:10018000A1110008A111000880B500AF4FF4805004
:10019000C4F202004FF4007102F0F0FF80BD00BF16
:1001A00080B500AF4FF48050C4F202004FF40071EC
:1001B00002F0D6FF80BD00BF80B500AF4FF4805085
:1001C000C4F202004FF4806102F0D8FF80BD00BF8E
:1001D00080B500AF4FF48050C4F202004FF480614C
:1001E00002F0BEFF80BD00BF80B500AF4FF480506D
:1001F000C4F202004FF4006102F0C0FF80BD00BFF6
:1002000080B500AF4FF48050C4F202004FF400619B
:1002100002F0A6FF80BD00BF80B500AF4FF4805054
:10022000C4F202004FF4805102F0A8FF80BD00BF6D
:1002300080B500AF4FF48050C4F202004FF48051FB
:1002400002F08EFF80BD00BF80B500AF4FF480503C
:10025000C4F202004FF4005102F090FF80BD00BFD5
:1002600080B500AF4FF48050C4F202004FF400514B
:1002700002F076FF80BD00BF80B500AF4FF4805024
:10028000C4F202004FF4804102F078FF80BD00BF4D
:1002900080B500AF4FF48050C4F202004FF48041AB
:1002A00002F05EFF80BD00BF80B582B000AF0346A4
:1002B000FB71FFF78DFFFB7903F00103DBB2002B2D
:1002C00002D0FFF79DFF01E0FFF78EFFFB7903F0FF
:1002D0000203002B02D0FFF7ABFF01E0FFF79CFF0A
:1002E000FB7903F00403002B02D0FFF7B9FF01E014
:1002F000FFF7AAFFFB7903F00803002B02D0FFF7FA
:10030000C7FF01E0FFF7B8FFFFF756FF07F1080747
:10031000BD4680BD80B582B000AF0346FB71FB795E
:100320004FEA1313DBB21846FFF7BEFFFB7903F069
:100330000F03DBB21846FFF7B7FF4FF0460002F09D
:10034000E7F907F10807BD4680BD00BF80B582B060
:1003500000AF0346FB71FFF717FFFB791846FFF765
:10036000A3FF07F10807BD4680BD00BF80B582B07E
:1003700000AF0346FB71FFF713FFFB791846FFF749
:10038000C9FF07F10807BD4680BD00BF80B582B038
:1003900000AF0346FB71FFF7F7FEFB791846FFF746
:1003A000B9FFFB79012B02D0FB79022B03D140F678
:1003B000340002F0ADF907F10807BD4680BD00BF6B
:1003C00080B500AF4FF010004FF0010101F0C6FA08
:1003D00040F25863C2F200034FF4FC421A6040F24C
:1003E0005863C2F200034FF001021A7140F25863E1
:1003F000C2F200034FF000029A7140F25863C2F259
:1004000000034FF003025A7140F25863C2F2000336
:100410004FF00102DA714FF48050C4F2020040F252
:100420005861C2F2000102F0D3FD4FF0C70002F0A4
:100430006FF94FF00300FFF789FF4FF00300FFF75C
:1004400085FF4FF0C70002F063F94FF00300FFF79C
:100450007DFF4FF00200FFF779FF4FF0C70002F079
:1004600057F94FF02800FFF791FF4FF0C70002F057
:100470004FF980BD80B582B000AF0346FB71FB79B8
:100480001846FFF773FF07F10807BD4680BD00BFA0
:1004900080B582B000AF786008E07B681B787A682E
:1004A00002F101027A601846FFF7E4FF7B681B78CF
:1004B000002BF2D107F10807BD4680BD80B582B0A0
:1004C00000AF02460B46FA71BB71BB7903F0010322
:1004D000DBB2002B0ED0BB794FEA5303DBB203F142
:1004E0000403DBB24FEA0313DBB2DBB263F07F033A
:1004F000DBB20AE0BB794FEA5303DBB24FEA0313E6
:10050000DBB2DBB263F07F03DBB2F9791A460B464C
:100510001343DBB2DBB21846FFF738FF4FF0C700DA
:1005200002F0F6F807F10807BD4680BD80B500AFC0
:100530004FF00100FFF72AFF80BD00BF80B500AF7C
:100540004FF00C00FFF722FF4FF0B30002F0E0F88D
:10055000FFF7ECFF80BD00BF80B500AF4FF0040097
:100560004FF0010101F0FAF940F25863C2F20003C2
:100570004FF008021A6040F25863C2F200034FF0D5
:1005800003021A7140F25863C2F200034FF00002F6
:10059000DA714FF40060C4F2020040F25861C2F216
:1005A000000102F015FD4FF480604FF0010101F0F1
:1005B0002DFA40F64C03C2F200034FF000021A601D
:1005C00040F64C03C2F200034FF000025A6040F6BE
:1005D0004C03C2F200034FF000029A6040F64C0355
:1005E000C2F200034FF00002DA6040F64C00C2F2A3
:1005F000000001F045FB40F2D863C2F200034FF067
:1006000000721A6040F2D863C2F200034FF0000299
:100610001A7140F2D863C2F200034FF001025A711E
:1006200040F2D863C2F200034FF000029A6040F239
:10063000D863C2F200034FF00002DA6040F2D863E0
:10064000C2F200034FF000021A6140F2D863C2F216
:1006500000034FF001021A754FF40850C4F2010074
:1006600040F2D861C2F2000101F0AEFA4FF4085036
:10067000C4F201004FF0010101F030FB4FF40850CB
:10068000C4F201004FF0010101F032FC4FF40850B8
:10069000C4F201004FF00D014FF001024FF00003D2
:1006A00001F038FB80BD00BF80B582B000AF4FF0D5
:1006B000320002F059F84FF40850C4F2010001F082
:1006C00007FC4FF40850C4F2010001F02DFC4FF478
:1006D0000850C4F2010001F027FC0346FB804FF4F0
:1006E0008050C4F2010042F6A461C0F6020100F09D
:1006F000DBFCFB880F2B07D840F60843C2F200034F
:100700004FF001021A8049E0FB88312B0AD9FB889F
:100710003C2B07D840F60843C2F200034FF0020218
:100720001A803BE0FB88632B0AD9FB88782B07D81B
:1007300040F60843C2F200034FF003021A802DE096
:10074000FB88952B0AD9FB88AA2B07D840F60843CB
:10075000C2F200034FF004021A801FE0FB88D12B85
:100760000AD9FB88E62B07D840F60843C2F20003FB
:100770004FF005021A8011E0FB88F92B07D940F6EB
:100780000843C2F200034FF006021A8006E040F66A
:100790000843C2F200034FF000021A8040F60843FB
:1007A000C2F200031B88002B10D140F60843C2F2AE
:1007B00000031B884FF48050C4F2010042F6CC6164
:1007C000C0F602011A4600F06FFC0FE040F6084345
:1007D000C2F200031B884FF48050C4F2010042F6BD
:1007E000E461C0F602011A4600F05EFCFFF79EFECF
:1007F0004FF000004FF00001FFF760FEFB8840F271
:100800004860C2F2000042F6F461C0F602011A46E6
:1008100001F0A4FE40F24860C2F20000FFF738FE8B
:100820004FF000004FF00101FFF748FE40F608438B
:10083000C2F200031B8840F24860C2F2000042F698
:100840000471C0F602011A4601F088FE40F24860C9
:10085000C2F20000FFF71CFE07F10807BD4680BD8D
:1008600080B58AB000AF786039604FF000037B62DA
:100870004FF000033B624FF00003FB614FF00003B9
:10088000BB617B681B8A9BB27B627B6A23F440530B
:100890007B623B68DB887A6A13437B627B6A9AB22D
:1008A0007B681A827B689B899BB27B627B6A23F49C
:1008B000B05323F00C037B623B689A883B681B892A
:1008C00013439AB23B685B8913439BB27A6A134322
:1008D0007B627B6A9AB27B689A817B689B8A9BB2B7
:1008E0007B627B6A23F440737B623B689B897A6AF4
:1008F00013437B627B6A9AB27B689A8207F1080392
:10090000184600F043FF7A684FF48053C4F20103A5
:100910009A4206D07A684FF4A053C4F201039A4277
:1009200002D17B693B6201E03B693B627B689B894A
:100930009BB29BB21BB2002B0FDA3A6A13464FEA06
:1009400083039B184FEA83029A183B681B684FEA9F
:100950004303B2FBF3F3FB610EE03A6A13464FEA3E
:1009600083039B184FEA83029A183B681B684FEA7F
:100970008303B2FBF3F3FB61FA6948F21F53C5F23C
:10098000EB13A3FB02134FEA53134FEA03137B62EB
:100990007B6A4FEA13134FF0640202FB03F3FA6918
:1009A000D31ABB617B689B899BB29BB21BB2002BA5
:1009B00012DABB694FEAC30303F1320248F21F5354
:1009C000C5F2EB13A3FB02134FEA531303F0070323
:1009D0007A6A13437B6211E0BB694FEA031303F1A8
:1009E000320248F21F53C5F2EB13A3FB02134FEA86
:1009F000531303F00F037A6A13437B627B6A9AB244
:100A00007B681A8107F12807BD4680BD80B483B09A
:100A100000AF78600B46FB70FB78002B08D07B683A
:100A20009B899BB243F400539AB27B689A8107E09A
:100A30007B689B899BB223F400539AB27B689A81AE
:100A400007F10C07BD4680BC704700BF80B483B07F
:100A500000AF78600B467B807B884FEAC3534FEA38
:100A6000D3539AB27B689A8007F10C07BD4680BCCD
:100A7000704700BF80B487B000AF786013460A4665
:100A80007A807B704FF000033B614FF00003FB6006
:100A90004FF00003BB604FF000037B617B687B611C
:100AA0007B88DBB24FEA5313DBB23B617B8803F0F8
:100AB0001F03FB60FB684FF0010202FA03F3BB6007
:100AC0003B69012B04D17B6903F10C037B610BE0D3
:100AD0003B69022B04D17B6903F110037B6103E0C6
:100AE0007B6903F114037B617B78002B06D07B6963
:100AF0007A691168BA680A431A6007E07B697A6903
:100B00001168BA686FEA02020A401A6007F11C070E
:100B1000BD4680BC704700BF80B485B000AF786030
:100B20000B467B804FF00003FB737B681B889AB2F7
:100B30007B8813409BB2002B03D04FF00103FB7363
:100B400002E04FF00003FB73FB7B184607F114072C
:100B5000BD4680BC704700BF80B487B000AF7860EE
:100B60000B467B804FF00003FB604FF000037B617E
:100B70004FF00003BB604FF00003FB747B88DBB2D7
:100B80004FEA5313DBB2BB607B8803F01F037B612A
:100B90007B694FF0010202FA03F37B61BB68012B12
:100BA00006D17B689B899BB27A6913407B610FE019
:100BB000BB68022B06D17B681B8A9BB27A69134003
:100BC0007B6105E07B689B8A9BB27A6913407B61FD
:100BD0007B884FEA13239BB2FB60FB684FF0010256
:100BE00002FA03F3FB607B681B889BB2FA68134030
:100BF000FB607B69002B06D0FB68002B03D04FF015
:100C00000103FB7402E04FF00003FB74FB7C184609
:100C100007F11C07BD4680BC704700BF80B582B09D
:100C200000AF78604FF010004FF0010100F0EEFED1
:100C30004FF002004FF0010100F090FE40F25863C7
:100C4000C2F200034FF0C0021A6040F25863C2F2D1
:100C500000034FF002021A7140F25863C2F200031F
:100C60004FF002025A7140F25863C2F200034FF093
:100C700000029A7140F25863C2F200034FF0010281
:100C8000DA714FF48060C4F2020040F25861C2F29F
:100C9000000102F09DF94FF48060C4F202004FF0B1
:100CA00006014FF0070202F077FA4FF48060C4F2B9
:100CB00002004FF007014FF0070202F06DFA40F614
:100CC0003803C2F200037A681A6040F63803C2F2B1
:100CD00000034FF000029A8040F63803C2F200038E
:100CE0004FF00002DA8040F63803C2F200034FF002
:100CF00000021A8140F63803C2F200034FF00002EE
:100D00009A8140F63803C2F200034FF00C025A8178
:100D10004FF48050C4F2010040F63801C2F20001E5
:100D2000FFF79EFD4FF48050C4F2010040F22551C0
:100D30004FF00102FFF79EFE40F64803C2F20003A7
:100D40004FF025021A7040F64803C2F200034FF03C
:100D500000025A7040F64803C2F200034FF001024D
:100D60009A7040F64803C2F200034FF00102DA70B5
:100D700040F64800C2F200001EF0E2FC4FF4805042
:100D8000C4F201004FF00101FFF740FE07F1080730
:100D9000BD4680BD80B582B000AF78604FF40030B2
:100DA0004FF0010100F006FE4FF001004FF001018D
:100DB00000F0D4FD40F25863C2F200034FF00C0281
:100DC0001A6040F25863C2F200034FF002021A7137
:100DD00040F25863C2F200034FF002025A7140F22F
:100DE0005863C2F200034FF000029A7140F2586358
:100DF000C2F200034FF00102DA714FF00000C4F2BA
:100E0000020040F25861C2F2000102F0E1F84FF036
:100E10000000C4F202004FF002014FF0070202F09E
:100E2000BBF94FF00000C4F202004FF003014FF095
:100E3000070202F0B1F940F63803C2F200037A6803
:100E40001A6040F63803C2F200034FF000029A80A5
:100E500040F63803C2F200034FF00002DA8040F699
:100E60003803C2F200034FF000021A8140F6380343
:100E7000C2F200034FF000029A8140F63803C2F23A
:100E800000034FF00C025A814FF48840C4F2000076
:100E900040F63801C2F20001FFF7E2FC4FF488404F
:100EA000C4F2000040F225514FF00102FFF7E2FDCD
:100EB00040F64803C2F200034FF026021A7040F6D3
:100EC0004803C2F200034FF000025A7040F6480394
:100ED000C2F200034FF001029A7040F64803C2F2DA
:100EE00000034FF00102DA7040F64800C2F2000041
:100EF0001EF026FC4FF48840C4F200004FF00101C0
:100F0000FFF784FD07F10807BD4680BD80B582B0BC
:100F100000AF4FF48050C4F2010040F22551FFF7BA
:100F20001BFE0346002B00F0BA804FF48053C4F23E
:100F300001039B889BB2FB7140F22063C2F2000365
:100F40001B6803F1FF33042B00F2868001A252F8E4
:100F500023F000BF690F00089B0F0008CD0F0008A9
:100F6000FF0F0008311000084FF48053C4F2010352
:100F70009B889BB2DAB240F6A833C2F200031A7023
:100F800040F22063C2F200031B6803F1010240F249
:100F90002063C2F200031A605FE04FF48053C4F292
:100FA00001039B889BB2DAB240F6A833C2F2000379
:100FB0005A7040F22063C2F200031B6803F1010281
:100FC00040F22063C2F200031A6046E04FF48053FF
:100FD000C4F201039B889BB2DAB240F6A833C2F296
:100FE00000039A7040F22063C2F200031B6803F111
:100FF000010240F22063C2F200031A602DE04FF4B8
:101000008053C4F201039B889BB2DAB240F6A83346
:10101000C2F20003DA7040F22063C2F200031B68E0
:1010200003F1010240F22063C2F200031A6014E0EF
:101030004FF48053C4F201039B889BB2DAB240F6AE
:10104000A833C2F200031A7140F22063C2F2000317
:1010500040F22B321A6000E000BFFA7940F2B4434C
:10106000C2F200031B689A4213D140F28453C2F2C9
:1010700000031B781A4640F2B043C2F200031B681B
:101080009A4206D140F22063C2F200034FF00102FF
:101090001A6040F28453C2F20003FA791A7007F121
:1010A0000807BD4680BD00BF0EB480B59FB000AF3D
:1010B000786007F18803FB6607F108031846D7F844
:1010C0008410FA6E01F036FA4FF000037B6707F1E7
:1010D0000803184621F0B6FE03463B674FF00003B5
:1010E0007B6715E007F108027B6FD3181B787868DF
:1010F0001946FFF7ABFC00BF78684FF04001FFF7DF
:101100000BFD0346002BF7D07B6F03F101037B67D8
:101110007A6F3B6F9A42E5DB07F17C07BD46BDE87D
:10112000804003B0704700BF80B582B000AF44F28A
:101130003073C0F602037B6040F20003C2F200038A
:101140003B600BE07B681A683B681A603B6803F100
:1011500004033B607B6803F104037B603A6840F260
:101160008453C2F200039A42ECD30A480A494FF072
:1011700000028842B8BF40F8042BFADBDFF81C00FD
:10118000016841F47001016000F00EF807F10807F2
:10119000BD4680BD840500200034002088ED00E0BD
:1011A00080B400AFFEE700BF80B500AF00F088F963
:1011B00015F064F94FF0640001F0D6FA4FF4805056
:1011C000C4F2010042F61471C0F60201FFF76CFF91
:1011D00001F0A0FE4FF0040013F0C8FCFFF764FA22
:1011E00001E0FFF761FA40F60843C2F200031B88F2
:1011F000002BF6D040F60843C2F200031B88062BF2
:1012000000F25D8101A252F823F000BF291200080C
:101210002B120008551200087F120008AD120008BA
:10122000DB120008BD13000849E140F60843C2F292
:1012300000031B88184601F0A9F94FF48050C4F24E
:10124000010042F62C71C0F60201FFF72DFF04F0F9
:101250007DF9FCE740F60843C2F200031B881846FC
:1012600001F094F94FF48050C4F2010042F6447149
:10127000C0F60201FFF718FF03F0ECFEFCE740F6B2
:101280000843C2F200031B88184601F07FF94FF4AF
:101290008050C4F2010042F65C71C0F60201FFF713
:1012A00003FF18F00BFA1EF01FFAFAE740F60843A6
:1012B000C2F200031B88184601F068F94FF4805011
:1012C000C4F2010042F67C71C0F60201FFF7ECFEA9
:1012D0001EF04CFC1EF0FCFCFAE740F60843C2F29C
:1012E00000031B88184601F051F94FF48050C4F2F6
:1012F000010042F69C71C0F60201FFF7D5FE40F2F4
:10130000D853C2F200031A6840F2D053C2F200036D
:101310005A6040F2A443C2F200031A6840F2D0536C
:10132000C2F200031A6040F29C43C2F200031A6842
:1013300040F2C053C2F200031A601EE04FF4805026
:10134000C4F2010042F6B471C0F60201FFF7ACFE30
:1013500007F0C2F840F2E053C2F200031B68012B11
:1013600018D040F2D053C2F200031A6840F2D853AA
:10137000C2F200031B689A420ED040F2D053C2F270
:1013800000031A6840F2A443C2F200031B689A42A9
:10139000D4D002E000BF00E000BF4FF48050C4F2A0
:1013A000010042F6C071C0F60201FFF77DFE15F0A4
:1013B00065F84FF0640001F0D7F9F8E740F608430C
:1013C000C2F200031B88184601F0E0F84FF4805089
:1013D000C4F2010042F6D071C0F60201FFF764FECC
:1013E0001EF00CFD01E01EF009FD40F2F853C2F2C0
:1013F00000031B68002BF6D022E04FF44060C4F2DB
:1014000000004FF001014FF001021EF0AFFF04F0A9
:1014100005FE1EF0F3FC40F6B433C2F200031B6875
:10142000012B0DD140F2F853C2F200034FF000023D
:101430001A6040F2FC53C2F200034FF001021A801E
:1014400040F2F853C2F200031B68012BD5D040F2E2
:10145000FC53C2F200034FF001021A8040F6B4338D
:10146000C2F200031B684FF48050C4F2010042F640
:10147000E471C0F602011A46FFF716FE40F2F85377
:10148000C2F200031B684FF48050C4F2010042F620
:10149000F471C0F602011A46FFF706FE40F2FC5353
:1014A000C2F200031B884FF48050C4F2010043F2E3
:1014B0000401C0F602011A46FFF7F6FD90E7FEE7C9
:1014C00098B500AF01F0D2FE01F0ECF813F0FEFE8B
:1014D0004FF0320001F048F9FEF772FFFFF72EF8E7
:1014E000FFF724F8FFF722F84FF002004FF0000159
:1014F000FEF7E4FF40F24862C2F2000243F21C032E
:10150000C0F6020314460FCB07C4237040F24860B4
:10151000C2F20000FEF7BCFF4FF005004FF00101E2
:10152000FEF7CCFF40F24863C2F2000343F22C0204
:10153000C0F6020292E80300186003F10403198068
:1015400003F102034FEA11421A7040F24860C2F2FE
:101550000000FEF79DFF4FF001004FF00201FEF783
:10156000ADFF40F24862C2F2000243F23403C0F61B
:10157000020314460FCB07C4238004F102044FEA90
:101580001343237040F24860C2F20000FEF780FF70
:101590004FF001004FF00301FEF790FF40F2486268
:1015A000C2F2000243F24403C0F6020314460FCB1A
:1015B00007C4238004F102044FEA1343237040F26E
:1015C0004860C2F20000FEF763FF4FF4FA7001F0CA
:1015D000CBF84FF41650FFF721FB4FF41650FFF7EE
:1015E000D9FB4FF416501EF01DF913F053FA13F007
:1015F00087FA13F021FBFEF7AFFF01F055FC1EF058
:10160000C1FB01F0C9F812F073FC02F067FF00F0B3
:1016100029FA12F007FD13F045FBFEF787FF4FF0A4
:1016200002004FF00001FEF749FF40F24862C2F2AB
:10163000000243F21C03C0F6020314460FCB07C49A
:10164000237040F24860C2F20000FEF721FF4FF025
:1016500005004FF00101FEF731FF40F24863C2F28E
:10166000000343F22C02C0F6020292E80300186065
:1016700003F10403198003F102034FEA11421A70C7
:1016800040F24860C2F20000FEF702FF4FF0010096
:101690004FF00201FEF712FF40F24862C2F2000270
:1016A00043F23403C0F6020314460FCB07C4238071
:1016B00004F102044FEA1343237040F24860C2F27F
:1016C0000000FEF7E5FE4FF003004FF00301FEF7C8
:1016D000F5FE40F24863C2F2000343F25402C0F642
:1016E000020207CA03C31A8040F24860C2F2000037
:1016F000FEF7CEFE4FF0320001F036F84FF4805086
:10170000C4F2010043F26001C0F60201FFF7CCFC15
:101710004FF48050C4F2010043F27401C0F602019C
:10172000FFF7C2FC4FF48050C4F2010043F2A8015D
:10173000C0F60201FFF7B8FC4FF48050C4F201007C
:1017400043F2C001C0F60201FFF7AEFC4FF4805037
:10175000C4F2010043F2C001C0F60201FFF7A4FC8D
:101760004FF48050C4F2010043F2C401C0F60201FC
:10177000FFF79AFC4FF48050C4F2010043F2C80115
:10178000C0F60201FFF790FC98BD00BF80B489B09D
:1017900000AF78604FF00003BB614FF000037B6146
:1017A0004FF00003FB614FF002033B614FF0000379
:1017B000FB604FF00203BB604FF46053C4F20203BE
:1017C0009B6803F00C03BB61BB69042B0AD0082B98
:1017D0000FD0002B62D17A684FF41053C0F2F4039B
:1017E000136062E07A684FF49053C0F27A0313609A
:1017F0005BE04FF46053C4F202035B6803F48003C0
:101800004FEA9353FB604FF46053C4F202035B68EA
:1018100003F03F03BB60FB68002B15D04FF49053DF
:10182000C0F27A03BA68B3FBF2F24FF46053C4F229
:1018300002035B68194647F6C0730B404FEA9313E7
:1018400003FB02F3FB6114E04FF41053C0F2F40306
:10185000BA68B3FBF2F24FF46053C4F202035B6860
:10186000194647F6C0730B404FEA931303FB02F38C
:10187000FB614FF46053C4F202035B6803F440332E
:101880004FEA134303F101034FEA43033B61FA6953
:101890003B69B2FBF3F27B681A6006E07A684FF4AA
:1018A0001053C0F2F403136000BF4FF46053C4F24E
:1018B00002039B6803F0F003BB61BB694FEA13139B
:1018C000BB6140F20003C2F20003BA699B181B78A7
:1018D000DBB27B617B681A687B6922FA03F27B6862
:1018E0005A604FF46053C4F202039B6803F4E05360
:1018F000BB61BB694FEA9323BB6140F20003C2F2B4
:101900000003BA699B181B78DBB27B617B685A685D
:101910007B6922FA03F27B689A604FF46053C4F249
:1019200002039B6803F46043BB61BB694FEA533316
:10193000BB6140F20003C2F20003BA699B181B7836
:10194000DBB27B617B685A687B6922FA03F27B68B1
:10195000DA6007F12407BD4680BC704780B483B0CD
:1019600000AF78600B46FB70FB78002B0DD04FF476
:101970006053C4F202034FF46052C4F20202126BCD
:1019800011467A680A431A630EE04FF46053C4F2BA
:1019900002034FF46052C4F20202126B11467A68DD
:1019A0006FEA02020A401A6307F10C07BD4680BCC9
:1019B000704700BF80B483B000AF78600B46FB7007
:1019C000FB78002B0DD04FF46053C4F202034FF4A8
:1019D0006052C4F20202126C11467A680A431A6419
:1019E0000EE04FF46053C4F202034FF46052C4F2AD
:1019F0000202126C11467A686FEA02020A401A6407
:101A000007F10C07BD4680BC704700BF80B483B0AF
:101A100000AF78600B46FB70FB78002B0DD04FF4C5
:101A20006053C4F202034FF46052C4F20202526CDB
:101A300011467A680A435A640EE04FF46053C4F2C8
:101A400002034FF46052C4F20202526C11467A68EB
:101A50006FEA02020A405A6407F10C07BD4680BCD7
:101A6000704700BF80B500AF00F008F84FF4006386
:101A7000C4F200034FF4FA625A6380BD80B500AF30
:101A80004FF008004FF00101FFF768FF4FF004002E
:101A90004FF00101FFF78EFF40F25863C2F20003DE
:101AA0004FF480521A6040F25863C2F200034FF0C4
:101AB00002021A7140F25863C2F200034FF00302AF
:101AC0005A7140F25863C2F200034FF000029A715B
:101AD00040F25863C2F200034FF00002DA714FF493
:101AE0004060C4F2020040F25861C2F2000101F00D
:101AF0006FFA4FF44060C4F202004FF00C014FF057
:101B0000020201F049FB40F26863C2F200034FF0A9
:101B100000021A8140F26863C2F200034FF0000233
:101B20005A8040F26863C2F2000349F63F425A60AD
:101B300040F26863C2F200034FF029021A804FF4AA
:101B40000060C4F2000040F26861C2F200011EF0C1
:101B500079F94FF40060C4F200004FF001011EF06B
:101B6000EBF940F27473C2F200034FF070021A8076
:101B700040F27473C2F200034FF001025A8040F247
:101B80007473C2F200034FF002029A814FF40063B3
:101B9000C4F200035B6B1A4640F27473C2F2000396
:101BA0009A604FF40060C4F2000040F27471C2F217
:101BB00000011EF0E1F94FF40060C4F200004FF0A4
:101BC00008011EF07BFB80BD80B485B000AF78605B
:101BD00039604FF00003FB604FF00003FB727B683D
:101BE0005B68FB60FB6823F0407323F48073FB6049
:101BF0003B681B794FEA03223B681B681343FA6872
:101C00001343FB607B68FA685A607B689B68FB60E3
:101C1000FA684FF2FD73CCF2FF031340FB603B68A0
:101C20001A693B68DB681A433B689B681A433B6848
:101C30005B794FEA43031343FA681343FB607B6805
:101C4000FA689A607B68DB6AFB60FB6823F47003C8
:101C5000FB603B681B7D03F1FF33DAB2FB7A134371
:101C6000FB72FB7A4FEA0353FA681343FB607B680D
:101C7000FA68DA6207F11407BD4680BC704700BFFE
:101C800080B485B000AF78604FF00003FB604FF484
:101C90000C53C4F201035B68FB60FA6843F2E00393
:101CA000CFF6FC731340FB607B681A687B685B6847
:101CB0001A437B689B681A437B68DB681343FA68A6
:101CC0001343FB604FF40C53C4F20103FA685A60EB
:101CD00007F11407BD4680BC704700BF80B483B0D5
:101CE00000AF78600B46FB70FB78002B06D07B685A
:101CF0009B6843F001027B689A6005E07B689B6803
:101D000023F001027B689A6007F10C07BD4680BC96
:101D1000704700BF80B485B000AF7860F970BA70CA
:101D20007B704FF00003FB604FF00003BB60FB785B
:101D3000092B27D97B68DB68FB60FA7813464FEAEA
:101D400043039B18A3F11E034FF0070202FA03F3AB
:101D5000BB60BB686FEA0303FA681340FB607978E5
:101D6000FA7813464FEA43039B18A3F11E0301FAC6
:101D700003F3BB60FA68BB681343FB607B68FA68D7
:101D8000DA6022E07B681B69FB60FA7813464FEA51
:101D900043039B184FF0070202FA03F3BB60BB68D2
:101DA0006FEA0303FA681340FB607978FA78134608
:101DB0004FEA43039B1801FA03F3BB60FA68BB6860
:101DC0001343FB607B68FA681A61BB78062B27D83F
:101DD0007B685B6BFB60BB7803F1FF3213464FEA15
:101DE00083039B184FF01F0202FA03F3BB60BB682A
:101DF0006FEA0303FA681340FB60F978BB7803F1DC
:101E0000FF3213464FEA83039B1801FA03F3BB60CA
:101E1000FA68BB681343FB607B68FA685A6351E059
:101E2000BB780C2B27D87B681B6BFB60BA781346FA
:101E30004FEA83039B18A3F123034FF01F0202FA1A
:101E400003F3BB60BB686FEA0303FA681340FB60EF
:101E5000F978BA7813464FEA83039B18A3F123035A
:101E600001FA03F3BB60FA68BB681343FB607B684D
:101E7000FA681A6326E07B68DB6AFB60BA7813466F
:101E80004FEA83039B18A3F141034FF01F0202FAAC
:101E900003F3BB60BB686FEA0303FA681340FB609F
:101EA000F978BA7813464FEA83039B18A3F14103EC
:101EB00001FA03F3BB60FA68BB681343FB607B68FD
:101EC000FA68DA6207F11407BD4680BC704700BFAC
:101ED00080B483B000AF78607B689B6843F0804239
:101EE0007B689A6007F10C07BD4680BC704700BF55
:101EF00080B483B000AF78600B46FB70FB78002B9A
:101F000006D07B689B6843F002027B689A6005E01C
:101F10007B689B6823F002027B689A6007F10C07DC
:101F2000BD4680BC704700BF80B483B000AF78600E
:101F30007B68DB6C9BB2184607F10C07BD4680BC82
:101F4000704700BF80B483B000AF78600B46FB7071
:101F50007B68FA781A704FF00103184607F10C07F6
:101F6000BD4680BC704700BF80B485B000AF7860CC
:101F700039604FF00003FB600FE03B681A787B6824
:101F80001A707B6803F101037B603B6803F1010376
:101F90003B60FB6803F10103FB603B681B78002B8F
:101FA000EBD1FB68184607F11407BD4680BC7047AB
:101FB00080B586B000AFF8607A603B600B46FB727C
:101FC0004FF000037B617B6803F1FF337B603B686C
:101FD000092B26D93A684CF6CD43CCF6CC43A3FB6B
:101FE00002134FEAD303FA7AF86811467A68FFF7CA
:101FF000DFFF03467B617B69FA68D318FB6013E05F
:10200000FB7AF8681946FFF79DFFFB6803F10103AF
:10201000FB607B6903F101037B617B6803F1FF33A4
:102020007B607B68002BEBDC39684CF6CD43CCF64B
:10203000CC43A3FB01234FEAD30213464FEA8303A9
:102040009B184FEA4303CA1AD3B203F13003DBB241
:10205000F8681946FFF776FF03467A69D3187B6163
:102060007B69184607F11807BD4680BD80B586B06C
:1020700000AFF8607A603B600B46FB724FF00003E4
:102080007B613B68002B04DA3B68C3F100033B61D2
:1020900001E03B683B617B6803F1FF337B603B6998
:1020A000092B2CD93B68002B13DA3A694CF6CD4347
:1020B000CCF6CC43A3FB02134FEAD303C3F10003D6
:1020C000FA7AF86811467A68FFF7D0FF03467B6119
:1020D00010E03A694CF6CD43CCF6CC43A3FB021397
:1020E0004FEAD303FA7AF86811467A68FFF7BEFF21
:1020F00003467B617B69FA68D318FB602BE03B6881
:10210000002B15DA7B6803F1FF337B6010E0FB7A6C
:10211000F8681946FFF716FFFB6803F10103FB603F
:102120007B6903F101037B617B6803F1FF337B6013
:102130007B68002BEBDC3B68002B0CDAF8684FF077
:102140002D01FFF7FFFE03467A69D3187B61FB6818
:1021500003F10103FB6039694CF6CD43CCF6CC4367
:10216000A3FB01234FEAD30213464FEA83039B18D4
:102170004FEA4303CA1AD3B203F13003DBB2F86863
:102180001946FFF7DFFE03467A69D3187B617B6946
:10219000184607F11807BD4680BD00BF80B588B05E
:1021A00002AFF8607A600A46FA72BB724FF0000321
:1021B0007B617B6803F1FF337B603B6A4FEA13135B
:1021C000002B24D03B6A4FEA1311FA7ABB7A0091B4
:1021D000F86811467A68FFF7E1FF03467A69D31879
:1021E0007B617B69FA68D318FB6013E0FB7AF868BF
:1021F0001946FFF7A7FEFB6803F10103FB607B694B
:1022000003F101037B617B6803F1FF337B607B6833
:10221000002BEBDC3B6A03F00F03092B0CD83B6A65
:10222000DBB203F00F03DBB203F13003DBB2F8687B
:102230001946FFF787FE1BE0BB7A002B0CD03B6AE8
:10224000DBB203F00F03DBB203F13703DBB2F86854
:102250001946FFF777FE0BE03B6ADBB203F00F0392
:10226000DBB203F15703DBB2F8681946FFF76AFEE9
:102270007B6903F101037B617B69184607F118074D
:10228000BD4680BD80B58AB002AFF860B9607A60A3
:102290003B604FF00003BB614FF000037B61FB68C4
:1022A000002B00F02281FB684FF000021A701CE145
:1022B0007B681B78252B10D07B681A78FB681A7016
:1022C000FB6803F10103FB607B6803F101037B60A2
:1022D0007B6903F101037B6108E17B6803F1010382
:1022E0001B78252B10D1FB684FF025021A70FB6874
:1022F00003F10103FB607B6803F102037B607B69F0
:1023000003F101037B61F1E04FF02003FB774FF015
:102310000003BB777B6803F101037B607B681B785C
:10232000302B1BD14FF03003FB777B6803F10103A7
:102330007B6013E0BB7F1A464FEA8202D3184FEA54
:102340004303DAB27B681B78D318DBB2A3F1300306
:10235000BB777B6803F101037B6000E000BF7B6813
:102360001B782F2B03D97B681B78392BE2D9BA7FD6
:102370007B69D3181A46BB689A4205D9BB68DAB2A2
:102380007B69DBB2D31ABB777B681B78A3F1580358
:10239000202B00F29A8001A252F823F07724000843
:1023A000CB240008CB240008CB240008CB24000851
:1023B000CB240008CB240008CB240008CB24000841
:1023C000CB240008CB240008B124000821240008F5
:1023D000CB240008CB240008CB240008CB24000821
:1023E00021240008CB240008CB240008CB240008BB
:1023F000CB240008CB240008CB240008CB24000801
:10240000CB240008CB24000899240008CB24000822
:102410003B240008CB240008CB24000855240008E6
:10242000BA7F3B6803F1040139601B68F97FF868E3
:10243000FFF71CFE0346BB614AE0BA7F3B6803F12D
:10244000040139601B68F97FF868FFF7B1FD0346A6
:10245000BB613DE0BA7F3B6803F104013960196854
:10246000FB7F0091F86819464FF00003FFF796FED6
:102470000346BB612CE0BA7F3B6803F1040139607D
:102480001968FB7F0091F86819464FF00103FFF7C8
:1024900085FE0346BB611BE03B6803F104023A6022
:1024A0001B68F8681946FFF75FFD0346BB610FE044
:1024B0003B6803F104023A601B68DBB2F868194616
:1024C000FFF740FD0346BB6102E04FF0FF332CE015
:1024D0007B6803F101037B60BB69FA68D318FB607A
:1024E0007A69BB69D3187B6100E000BF7B681B7809
:1024F000002B04D07A69BB689A42FFF4D9AE7A699E
:10250000BB689A4204D2FB684FF000021A700BE0DD
:10251000FB6803F1FF33FB60FB684FF000021A70A9
:102520007B6903F1FF337B617B69184607F1200764
:10253000BD4680BD80B584B000AFF860B9607A60F8
:10254000F8684FF06401BA687B68FFF79BFE0346AA
:10255000184607F11007BD4680BD00BF0EB480B518
:1025600085B000AF786007F12003BB607868F96937
:10257000BA68FFF7DFFF0346FB60FB68184607F108
:102580001407BD46BDE8804003B0704780B582B0F7
:1025900000AF78604FF0320000F0E6F8786812F093
:1025A000E5FAFDF7C3FF4FF000004FF00001FDF723
:1025B00085FF40F24860C2F2000043F2E401C0F639
:1025C00002017A68FFF7CAFF40F24860C2F20000D9
:1025D000FDF75EFF4FF0320000F0C6F807F1080784
:1025E000BD4680BD80B483B000AF03463960FB7147
:1025F00097F90730002B10DA4FF46D43CEF2000349
:10260000FA7902F00F02A2F104013A68D2B24FEA5D
:102610000212D2B25B181A760DE04FF46143CEF28B
:10262000000397F907103A68D2B24FEA0212D2B209
:102630005B1883F8002307F10C07BD4680BC704788
:1026400080B582B000AF78607A686FF07F439A42BD
:1026500002D94FF001031FE04EF21003CEF2000347
:102660007A6822F07F4202F1FF325A604FF0FF3069
:102670004FF00F01FFF7B6FF4EF21003CEF200034A
:102680004FF000029A604EF21003CEF200034FF0BA
:1026900007021A604FF00003184607F10807BD460D
:1026A00080BD00BF80B500AF00BF40F24043C2F222
:1026B00000031A684DF68363C4F21B33A3FB0213B5
:1026C0004FEA93431846FFF7BBFF0346002BECD1BC
:1026D00080BD00BF80B500AF00F002F880BD00BF34
:1026E00080B400AF40F28853C2F200031B68002B95
:1026F0000BD040F28853C2F200031B6803F1FF3293
:1027000040F28853C2F200031A60BD4680BC704795
:1027100080B483B000AF786040F28853C2F2000307
:102720007A681A6000BF40F28853C2F200031B6847
:10273000002BF8D107F10C07BD4680BC704700BFE5
:1027400080B400AF40F28853C2F200034FF47A72B3
:102750001A6000BF40F28853C2F200031B68002BCE
:10276000F8D1BD4680BC704780B582B000AF7860BC
:1027700001E0FFF7E5FF7B68002B0CBF002301237E
:10278000DBB27A6802F1FF327A60002BF1D107F1F7
:102790000807BD4680BD00BF80B500AF00F002F85D
:1027A00080BD00BF80B500AF4FF002004FF00101C7
:1027B000FFF7D4F840F25863C2F200034FF44072BE
:1027C0001A6040F25863C2F200034FF002021A711D
:1027D00040F25863C2F200034FF001029A7140F2D6
:1027E0005863C2F200034FF003025A7140F258637B
:1027F000C2F200034FF00002DA714FF48060C4F2BD
:10280000020040F25861C2F2000100F0E1FB4FF417
:1028100000104FF00101FFF7CDF840F2F063C2F273
:1028200000034FF000029A8040F2F063C2F200030E
:1028300048F2A062C0F201021A6040F2F063C2F2F4
:1028400000034BF6FF72DA8040F2F063C2F200033D
:102850004FF000021A8140F2F063C2F200034FF41D
:1028600080625A8140F2F063C2F200034FF480426A
:102870009A814FF4A840C4F200004FF0010112F019
:10288000F5FB4FF4A840C4F2000040F2F061C2F240
:10289000000112F015FB4FF48060C4F202004FF00B
:1028A00008014FF0040200F077FC4FF48060C4F29E
:1028B00002004FF009014FF0040200F06DFC80BDF2
:1028C00080B582B000AF7860396000BF4FF4A84097
:1028D000C4F200004FF4003112F0BCFC0346002BA0
:1028E000F4D14FF4A840C4F200004FF0010112F0FF
:1028F000DDFB00BF4FF4A840C4F200004FF001011F
:10290000C0F2030112F06EFC0346002BF2D07B688C
:10291000DBB24FEA4303DBB24FF4A840C4F200003D
:1029200019464FF0000212F001FC00BF4FF4A8401E
:10293000C4F200004FF08201C0F2070112F052FC15
:102940000346002BF2D04FF4A840C4F200004FF031
:10295000010112F08BFB3B68DBB24FF4A840C4F2DC
:102960000000194612F020FC00BF4FF4A840C4F24A
:1029700000004FF08401C0F2070112F033FC03465F
:10298000002BF2D04FF4A840C4F200004FF0010138
:1029900012F08CFB00BF4FF4A840C4F200004FF0CF
:1029A0000101C0F2030112F01DFC0346002BF2D01E
:1029B0007B68DBB24FEA4303DBB24FF4A840C4F2BA
:1029C000000019464FF0010212F0B0FB00BF4FF4B7
:1029D000A840C4F200004FF00201C0F2030112F05F
:1029E00001FC0346002BF2D04FF4A840C4F20000D3
:1029F0004FF0000112F0B8FB4FF4A840C4F2000001
:102A00004FF0010112F072FB00BF4FF4A840C4F276
:102A100000004FF04001C0F2030112F0E3FB034657
:102A2000002BF2D04FF4A840C4F2000012F0CCFB0F
:102A300003461A4640F61013C2F200031A604FF420
:102A4000A840C4F200004FF0010112F08DFB07F125
:102A50000807BD4680BD00BFB0B582B000AF0346D9
:102A6000FB7140F20C63C2F200034FF000021A60E7
:102A700040F21063C2F200034FF000021A6040F20D
:102A80001463C2F200034FF000021A7040F6C44310
:102A9000C2F200034FF000021A6040F20C63C2F26F
:102AA00000034FF000021A6031E040F6C443C2F266
:102AB00000031B684FF068001946FFF701FF40F65E
:102AC000C443C2F200031B6803F1010240F6C44391
:102AD000C2F200031A6040F20C63C2F200031A68EB
:102AE00040F61013C2F200031B68D9B240F6F4237B
:102AF000C2F20003995440F20C63C2F200031B6857
:102B000003F1010240F20C63C2F200031A6040F2CA
:102B10000C63C2F200031B68092BC6DD40F6F423E8
:102B2000C2F200035A7840F21463C2F200031A7032
:102B300040F6F423C2F20003DA7840F6A023C2F292
:102B400000031A7040F6F423C2F200031A7940F62B
:102B5000A023C2F200035A7040F6F423C2F200032D
:102B60005A7940F6A023C2F200039A7040F6F4238B
:102B7000C2F200039A7940F6A023C2F20003DA7091
:102B800040F6F423C2F20003DA7940F6A023C2F241
:102B900000031A7140F6F423C2F200031A7A40F6D9
:102BA000A023C2F200035A7140F6F423C2F20003DC
:102BB0009A7840F6A023C2F200039A7140F6F423FB
:102BC000C2F200035A7A40F6A023C2F20003DA717F
:102BD00040F21063C2F200031B6818461FF0B4FDF8
:102BE00004460D4640F6A023C2F200031B781846A7
:102BF0001FF09AFD02460B4645EC104B43EC112B9F
:102C00001DF040FE53EC102B1046194620F09CF8A6
:102C1000024640F21063C2F200031A6040F21063F1
:102C2000C2F200031B6818461FF08EFD04460D46D5
:102C300040F6A023C2F200035B7818461FF074FD33
:102C400002460B4645EC104B43EC112B1DF01AFECF
:102C500053EC102B1046194620F076F8024640F24D
:102C60001063C2F200031A6040F21063C2F2000364
:102C70001B6818461FF068FD04460D4640F6A02369
:102C8000C2F200039B7818461FF04EFD02460B4629
:102C900045EC104B43EC112B1DF0F4FD53EC102BC5
:102CA0001046194620F050F8024640F21063C2F276
:102CB00000031A6040F21063C2F200031B6818465A
:102CC0001FF042FD04460D4640F6A023C2F2000369
:102CD000DB7818461FF028FD02460B4645EC104BEA
:102CE00043EC112B1DF0CEFD53EC102B1046194672
:102CF00020F02AF8024640F21063C2F200031A6084
:102D000040F21063C2F200031B6818461FF01CFD5E
:102D100004460D4640F6A023C2F200031B79184674
:102D20001FF002FD02460B4645EC104B43EC112B05
:102D30001DF0A8FD53EC102B1046194620F004F8A6
:102D4000024640F21063C2F200031A6040F21063C0
:102D5000C2F200031B6818461FF0F6FC04460D463D
:102D600040F6A023C2F200035B7918461FF0DCFC9A
:102D700002460B4645EC104B43EC112B1DF082FD37
:102D800053EC102B104619461FF0DEFF024640F2AE
:102D90001063C2F200031A6040F21063C2F2000333
:102DA0001B6818461FF0D0FC04460D4640F6A023D1
:102DB000C2F200039B7918461FF0B6FC02460B4690
:102DC00045EC104B43EC112B1DF05CFD53EC102B2C
:102DD000104619461FF0B8FF024640F21063C2F2D7
:102DE00000031A6040F21063C2F200031B68184629
:102DF0001FF0AAFC04460D4640F6A023C2F20003D1
:102E0000DB7918461FF090FC02460B4645EC104B50
:102E100043EC112B1DF036FD53EC102B10461946D8
:102E20001FF092FF024640F21063C2F200031A60E4
:102E3000FB79002B06D140F21063C2F200031B683D
:102E4000DBB21EE040F21063C2F200031A6840F2E7
:102E50001463C2F200031B78D21A40F21063C2F26C
:102E600000031A6040F21063C2F200031B680E2BCD
:102E700005DDFB79002B02D04FF0010301E04FF09C
:102E80000003184607F10807BD46B0BD80B500AF86
:102E90004FF00100FFF7E0FD03461A4640F21863C9
:102EA000C2F200031A6080BD80B500AF4FF0010090
:102EB0004FF00101FEF752FD40F25863C2F20003E9
:102EC0004FF480721A6040F25863C2F200034FF070
:102ED00000021A7140F25863C2F200034FF0000280
:102EE0009A7140F25863C2F200034FF003025A7124
:102EF00040F25863C2F200034FF00102DA714FF062
:102F00000000C4F2020040F25861C2F2000100F079
:102F10005FF880BDB0B500AF4FF00000C4F2020012
:102F20004FF4807100F0FEF803461A4640F2F45365
:102F3000C2F200031A801DE04FF00000C4F202004C
:102F40004FF4807100F0EEF803461A4640F2F45355
:102F5000C2F200031A804FF00000C4F202004FF0EA
:102F6000020100F0DFF803461A4640F2F653C2F2BF
:102F700000031A804FF00000C4F202004FF4807189
:102F800000F0D0F80346002B06D040F2F653C2F210
:102F900000031B88012BCFD14FF000004FF003013D
:102FA000FDF78CFA40F24862C2F2000243F2F403E9
:102FB000C0F6020314461D460FCD0FC42B682370C4
:102FC00040F24860C2F20000FDF762FAB0BD00BFF7
:102FD00080B487B000AF786039604FF000037B6148
:102FE0004FF000033B614FF00003FB604FF0000324
:102FF0007B618EE07B694FF0010202FA03F33B61D3
:103000003B681A683B691340FB60FA683B699A4267
:103010007BD17B681B681A467B694FEA43034FF0FC
:10302000030101FA03F36FEA03031A407B681A6095
:103030007B681B681A463B681B7919467B694FEA17
:10304000430301FA03F31A437B681A603B681B7958
:10305000012B03D03B681B79022B38D17B689B681E
:103060001A467B694FEA43034FF0030101FA03F369
:103070006FEA03031A407B689A607B689B681A4674
:103080003B685B7919467B694FEA430301FA03F316
:103090001A437B689A607B685B681A467B699BB2BF
:1030A0004FF0010101FA03F36FEA03031A407B6852
:1030B0005A607B685B681A463B689B7919467B6956
:1030C0009BB201FA03F39BB21A437B685A607B6898
:1030D000DB681A467B699BB24FEA43034FF003015A
:1030E00001FA03F36FEA03031A407B68DA607B6836
:1030F000DB681A463B68DB7919467B694FEA430374
:1031000001FA03F31A437B68DA607B6903F1010378
:103110007B617B690F2B7FF66DAF07F11C07BD4606
:1031200080BC704780B485B000AF78600B467B8070
:103130004FF00003FB737B681B691A467B881340C2
:10314000002B03D04FF00103FB7302E04FF00003AC
:10315000FB73FB7B184607F11407BD4680BC704724
:1031600080B483B000AF78600B467B807B687A8840
:103170001A8307F10C07BD4680BC704780B483B04A
:1031800000AF78600B467B807B687A885A8307F1B2
:103190000C07BD4680BC704780B485B000AF786036
:1031A00013460A467A807B704FF00003FB604FF0B5
:1031B0000003BB607A787B8803F007034FEA830340
:1031C00002FA03F3FB607B884FEAD3039BB21A46F3
:1031D0007B884FEAD3039BB219467B6801F1080153
:1031E00053F8213019467B8803F007034FEA830325
:1031F0004FF00F0000FA03F36FEA030319407B68F6
:1032000002F1080243F822107B884FEAD3039BB2F5
:103210001A467B6802F1080253F822301A46FB680E
:103220001343BB607B884FEAD3039BB21A467B688B
:1032300002F10802B96843F8221007F11407BD46ED
:1032400080BC7047ABBE01E000207047002A00D070
:1032500010600120704706980188034A914202D10C
:10326000043006907047FEE7ABBE000080B500AFAB
:103270004FF46D43CEF200034FF46D42CEF20002E4
:10328000D2F8882042F47002C3F888204FF46053CB
:10329000C4F202034FF46052C4F20202126842F018
:1032A00001021A604FF46053C4F202034FF00002AF
:1032B0009A604FF46053C4F202034FF46052C4F2B8
:1032C0000202126822F0847222F480321A604FF4F3
:1032D0006053C4F2020343F21002C2F200425A6089
:1032E0004FF46053C4F202034FF46052C4F202027E
:1032F000126822F480221A604FF46053C4F2020371
:103300004FF00002DA6000F009F84FF46D43CEF29E
:1033100000034FF000629A6080BD00BF80B483B0AC
:1033200000AF4FF000037B604FF000033B604FF4B1
:103330006053C4F202034FF46052C4F202021268F6
:1033400042F480321A604FF46053C4F202031B68E7
:1033500003F400333B607B6803F101037B603B684F
:10336000002B03D17B68B3F5A06FECD14FF4605311
:10337000C4F202031B6803F40033002B03D04FF0A8
:1033800001033B6002E04FF000033B603B68012B10
:1033900040F082804FF46053C4F202034FF4605255
:1033A000C4F20202126C42F080521A644FF4E043FD
:1033B000C4F200034FF4E042C4F20002126842F487
:1033C00080421A604FF46053C4F202034FF460521B
:1033D000C4F2020292689A604FF46053C4F202038E
:1033E0004FF46052C4F20202926842F400429A60C2
:1033F0004FF46053C4F202034FF46052C4F202026D
:10340000926842F4A0529A604FF46053C4F20203EF
:1034100045F20842C0F240725A604FF46053C4F261
:1034200002034FF46052C4F20202126842F080724A
:103430001A6000BF4FF46053C4F202031B6803F02C
:103440000073002BF6D04FF47053C4F2020340F225
:1034500005621A604FF46053C4F202034FF46052E5
:10346000C4F20202926822F003029A604FF46053A1
:10347000C4F202034FF46052C4F20202926842F0B6
:1034800002029A6000BF4FF46053C4F202039B68CB
:1034900003F00C03082BF6D107F10C07BD4680BCE6
:1034A000704700BF80B500AF4FF002004FF0010140
:1034B000FEF754FA40F25863C2F200034FF03702AD
:1034C0001A6040F25863C2F200034FF001021A7111
:1034D00040F25863C2F200034FF000029A7140F2CA
:1034E0005863C2F200034FF003025A7140F258636E
:1034F000C2F200034FF00202DA714FF48060C4F2AE
:10350000020040F25861C2F20001FFF761FD4FF086
:1035100004004FF00101FEF721FA40F25863C2F2B5
:1035200000034FF400521A6040F25863C2F20003E5
:103530004FF000021A7140F25863C2F200034FF0DC
:1035400000029A7140F25863C2F200034FF0030286
:103550005A7140F25863C2F200034FF00202DA716E
:103560004FF40060C4F2020040F25861C2F2000160
:10357000FFF72EFD4FF010004FF00101FEF7EEF9BE
:1035800040F25863C2F200034FF0F8021A6040F2B2
:103590005863C2F200034FF001021A7140F25863FF
:1035A000C2F200034FF000029A7140F25863C2F277
:1035B00000034FF003025A7140F25863C2F2000355
:1035C0004FF00202DA714FF48050C4F2020040F270
:1035D0005861C2F20001FFF7FBFC4FF010004FF002
:1035E0000101FEF7BBF940F25863C2F200034FF449
:1035F00080721A6040F25863C2F200034FF000027A
:103600001A7140F25863C2F200034FF000029A713F
:1036100040F25863C2F200034FF003025A7140F2C5
:103620005863C2F200034FF00202DA714FF4805087
:10363000C4F2020040F25861C2F20001FFF7C8FC78
:1036400080BD00BF80B582B000AF4FF46253C0F2BE
:1036500001037B604FF001004FF00101FEF7AAF972
:1036600040F26863C2F200034FF053021A8040F246
:103670006863C2F200034FF000025A8040F26863B0
:10368000C2F200037A685A6040F26863C2F2000333
:103690004FF000021A8140F26863C2F200034FF05B
:1036A00000029A724FF0804040F26861C2F200015D
:1036B0001CF0C8FB07F10807BD4680BD80B582B08D
:1036C00000AF0346FB71FB79002B18D14FF48060EB
:1036D000C4F202004FF00101FFF750FD4FF480608B
:1036E000C4F202004FF00201FFF748FD4FF4806082
:1036F000C4F202004FF00401FFF740FD3AE0FB790D
:10370000012B10D14FF48060C4F202004FF002018F
:10371000FFF726FD4FF48060C4F202004FF0040171
:10372000FFF71EFD26E0FB79022B10D14FF48060DD
:10373000C4F202004FF00201FFF712FD4FF4806067
:10374000C4F202004FF00401FFF718FD12E0FB790C
:10375000032B0FD14FF48060C4F202004FF002013E
:10376000FFF70CFD4FF48060C4F202004FF004013B
:10377000FFF7F6FC07F10807BD4680BD000000001A
:1037800090B585B000AF02460B46FA71BB714FF0A1
:103790000200FFF793FFFB79002B10D14FF48060FC
:1037A000C4F202004FF02001FFF7E8FC4FF4806004
:1037B000C4F202004FF01001FFF7D2FC3AE0FB79AF
:1037C000012B10D14FF48060C4F202004FF02001B1
:1037D000FFF7D4FC4FF48060C4F202004FF01001F8
:1037E000FFF7CCFC26E0FB79022B10D14FF4806070
:1037F000C4F202004FF02001FFF7B2FC4FF48060EA
:10380000C4F202004FF01001FFF7B8FC12E0FB79A0
:10381000032B0FD14FF48060C4F202004FF020015F
:10382000FFF79EFC4FF48060C4F202004FF01001DD
:10383000FFF796FC00BF4FF40060C4F202004FF4A3
:103840000051FFF76FFC0346002BF4D04FF080438C
:103850004FF000025A624FF080404FF001011CF01F
:103860006BFB00BF4FF40060C4F202004FF4005144
:10387000FFF758FC0346012BF4D04FF080404FF087
:1038800000011CF059FB4FF080435B6A07EE103AD1
:10389000F8EE477AC7ED037AF8681EF067FF024634
:1038A0000B464FF001010C46104619460CA3D3E914
:1038B00000231FF021FA0346002B02D14FF0000332
:1038C0001C46E3B2002B01D0074BFB60FB6807EE00
:1038D000903AB0EE670A07F11407BD4690BD00BFED
:1038E0009A9999999999B93F00409C47AFF3008004
:1038F00080B500AF4FF000004FF00101FFF740FF2F
:10390000F0EE407A40F6E003C2F20003C3ED007A25
:103910004FF001004FF00101FFF732FFF0EE407A67
:1039200040F6C803C2F20003C3ED007A4FF0020074
:103930004FF00101FFF724FFF0EE407A40F6D40388
:10394000C2F20003C3ED007A4FF003004FF0010113
:10395000FFF716FFF0EE407A40F6D003C2F2000304
:10396000C3ED007A80BD00BF80B582B000AF4FF0DC
:1039700000037B6000E2FFF7BBFF7B6803F10103FC
:103980007B6040F29853C2F2000393ED007A40F658
:10399000C803C2F20003D3ED007A77EE277A40F233
:1039A0009853C2F20003C3ED007A40F29C53C2F276
:1039B000000393ED007A40F6D403C2F20003D3ED86
:1039C000007A77EE277A40F29C53C2F20003C3EDEF
:1039D000007A40F2A053C2F2000393ED007A40F661
:1039E000E003C2F20003D3ED007A77EE277A40F2CB
:1039F000A053C2F20003C3ED007A7B68052B40F0B0
:103A0000BB8140F29853C2F2000393ED007AF2EECC
:103A1000007AC7EE277A40F29853C2F20003C3ED52
:103A2000007A40F29C53C2F2000393ED007AF2EE6A
:103A3000007AC7EE277A40F29C53C2F20003C3ED2E
:103A4000007A40F2A053C2F2000393ED007AF2EE46
:103A5000007AC7EE277A40F2A053C2F20003C3ED0A
:103A6000007A40F29853C2F2000393ED007A40F2DC
:103A70009C53C2F20003D3ED007A77EE677A40F2EE
:103A8000A453C2F20003C3ED007A40F29853C2F28D
:103A9000000393ED007ADFEDBC7AB4EEE77AF1EE45
:103AA00010FA54BF00230123DBB2002B00F0648125
:103AB00040F29C53C2F2000393ED007ADFEDB27A3C
:103AC000B4EEE77AF1EE10FA54BF00230123DBB223
:103AD000002B00F0518140F2A053C2F2000393ED9D
:103AE000007ADFEDA97AB4EEE77AF1EE10FA54BF6E
:103AF00000230123DBB2002B00F03E8140F2A053F3
:103B0000C2F2000393ED007ADFEDA07AB4EEE77A1B
:103B1000F1EE10FA54BF00230123DBB2002B48D092
:103B200040F29853C2F2000393ED007ADFED987AE9
:103B3000B4EEE77AF1EE10FA8CBF00230123DBB27A
:103B4000002B00F0198140F29C53C2F2000393ED68
:103B5000007ADFED8F7AB4EEE77AF1EE10FA8CBFDF
:103B600000230123DBB2002B00F0068140F27443F6
:103B7000C2F200031A6840F29053C2F200031A60C6
:103B800040F2B853C2F200034FF001021A6040F64F
:103B90004C23C2F200034FF000021A6040F2C453FB
:103BA000C2F200031A6840F2C453C2F200031A6062
:103BB000E2E040F2A053C2F2000393ED007ADFEDA1
:103BC000737AB4EEE77AF1EE10FAB4BF0023012362
:103BD000DBB2002B00F0B98040F29853C2F2000330
:103BE00093ED007ADFED6B7AB4EEE77AF1EE10FA3E
:103BF000B4BF00230123DBB2002B34D040F29C532E
:103C0000C2F2000393ED007ADFED627AB4EEE77A58
:103C1000F1EE10FAB4BF00230123DBB2002B22D057
:103C200040F27043C2F200031A6840F29053C2F2AD
:103C300000031A6040F2B853C2F200034FF00002D2
:103C40001A6040F64C23C2F200034FF001021A60E2
:103C500040F2C453C2F200031A6840F2C453C2F2E5
:103C600000031A6088E040F29853C2F2000393ED1B
:103C7000007A40F29C53C2F20003D3ED007AB4EE16
:103C8000E77AF1EE10FA54BF00230123DBB2002BD8
:103C900022D040F27843C2F200031A6840F29053F7
:103CA000C2F200031A6040F2B853C2F200034FF0B0
:103CB00000021A6040F64C23C2F200034FF00102EA
:103CC0001A6040F29843C2F200031A6840F2C453EB
:103CD000C2F200031A604EE040F29C53C2F20003AD
:103CE00093ED007A40F29853C2F20003D3ED007ACC
:103CF000B4EEE77AF1EE10FA54BF00230123DBB2F1
:103D0000002B38D040F27C43C2F200031A6840F224
:103D10009053C2F200031A6040F2B853C2F200039B
:103D20004FF000021A6040F64C23C2F200034FF03D
:103D300001021A6040F29C43C2F200031A6840F28A
:103D4000C453C2F200031A6015E04FF000037B6019
:103D500040F29853C2F200030F4A1A6040F29C539B
:103D6000C2F200030C4A1A6040F2A053C2F20003F0
:103D7000094A1A6000E000BF7B68042B7FF6FBADA8
:103D800007F10807BD4680BD00007A4400002042CC
:103D900000008C42000034430000000080B582B077
:103DA00000AF4FF46253C0F201037B604FF080001C
:103DB0004FF00101FDF7FEFD40F26863C2F200031F
:103DC0004FF053021A8040F26863C2F200034FF0D2
:103DD00000025A8040F26863C2F200037A685A60B7
:103DE00040F26863C2F200034FF000021A8140F211
:103DF0006863C2F200034FF000029A724FF4E05081
:103E0000C4F2000040F26861C2F200011CF01AF82E
:103E100007F10807BD4680BD80B582B000AF0346FC
:103E2000FB71FB79002B18D14FF48050C4F20200D3
:103E30004FF00801FFF7A2F94FF48050C4F20200DE
:103E40004FF01001FFF79AF94FF48050C4F20200CE
:103E50004FF02001FFF792F93AE0FB79012B10D1E6
:103E60004FF48050C4F202004FF01001FFF778F9D0
:103E70004FF48050C4F202004FF02001FFF770F9B8
:103E800026E0FB79022B10D14FF48050C4F20200DF
:103E90004FF01001FFF764F94FF48050C4F20200B4
:103EA0004FF02001FFF76AF912E0FB79032B0FD1E5
:103EB0004FF48050C4F202004FF01001FFF75EF99A
:103EC0004FF48050C4F202004FF02001FFF748F990
:103ED00007F10807BD4680BD90B585B000AF02462A
:103EE0000B46FA71BB714FF00200FFF795FFFB79AB
:103EF000002B10D14FF48050C4F202004FF080012B
:103F0000FFF73CF94FF48050C4F202004FF040013B
:103F1000FFF726F93AE0FB79012B10D14FF48050DE
:103F2000C4F202004FF08001FFF728F94FF48050EF
:103F3000C4F202004FF04001FFF720F926E0FB79C0
:103F4000022B10D14FF48050C4F202004FF08001D8
:103F5000FFF706F94FF48050C4F202004FF0400121
:103F6000FFF70CF912E0FB79032B0FD14FF48050CF
:103F7000C4F202004FF08001FFF7F2F84FF48050D6
:103F8000C4F202004FF04001FFF7EAF800BF4FF41F
:103F90008050C4F202004FF48071FFF7C3F803466B
:103FA000002BF4D04FF4E053C4F200034FF00002B2
:103FB0005A624FF4E050C4F200004FF001011BF0D0
:103FC000BBFF00BF4FF48050C4F202004FF4807179
:103FD000FFF7A8F80346012BF4D04FF4E050C4F2E9
:103FE00000004FF000011BF0A7FF4FF4E053C4F2B4
:103FF00000035B6A07EE103AF8EE477AC7ED037AE2
:10400000F8681EF0B3FB02460B464FF001010C4668
:10401000104619460CA3D3E900231EF06DFE03469B
:10402000002B02D14FF000031C46E3B2002B01D05D
:10403000074BFB60FB6807EE903AB0EE670A07F1AA
:104040001407BD4690BD00BF9A9999999999B93FB7
:1040500000409C47AFF3008080B500AF4FF00000F8
:104060004FF00101FFF738FFF0EE407A40F6CC0345
:10407000C2F20003C3ED007A4FF001004FF00101DE
:10408000FFF72AFFF0EE407A40F6C003C2F20003C9
:10409000C3ED007A4FF002004FF00101FFF71CFF63
:1040A000F0EE407A40F6EC03C2F20003C3ED007A72
:1040B0004FF003004FF00101FFF70EFFF0EE407AE2
:1040C00040F6E803C2F20003C3ED007A80BD00BFF2
:1040D00080B582B000AF4FF000037B60ECE1FFF7EA
:1040E000BBFF7B6803F101037B6040F2A853C2F27F
:1040F000000393ED007A40F6C003C2F20003D3ED53
:10410000007A77EE277A40F2A853C2F20003C3ED9B
:10411000007A40F2AC53C2F2000393ED007A40F60D
:10412000EC03C2F20003D3ED007A77EE277A40F277
:10413000AC53C2F20003C3ED007A40F2B053C2F2B6
:10414000000393ED007A40F6CC03C2F20003D3EDF6
:10415000007A77EE277A40F2B053C2F20003C3ED43
:10416000007A7B68052B40F0A78140F2A853C2F289
:10417000000393ED007AF2EE007AC7EE277A40F260
:10418000A853C2F20003C3ED007A40F2AC53C2F26E
:10419000000393ED007AF2EE007AC7EE277A40F240
:1041A000AC53C2F20003C3ED007A40F2B053C2F246
:1041B000000393ED007AF2EE007AC7EE277A40F220
:1041C000B053C2F20003C3ED007A40F2A853C2F22A
:1041D000000393ED007A40F2AC53C2F20003D3ED3A
:1041E000007A77EE677A40F2B453C2F20003C3ED6F
:1041F000007A40F2A853C2F2000393ED007ADFED9B
:10420000B27AB4EEE77AF1EE10FA54BF002301233C
:10421000DBB2002B00F0508140F2AC53C2F200033D
:1042200093ED007ADFEDA87AB4EEE77AF1EE10FABA
:1042300054BF00230123DBB2002B00F03D8140F28C
:10424000B053C2F2000393ED007ADFED9F7AB4EE33
:10425000E77AF1EE10FA54BF00230123DBB2002B02
:1042600000F02A8140F2B053C2F2000393ED007ACD
:10427000DFED967AB4EEE77AF1EE10FA54BF002340
:104280000123DBB2002B3ED040F2A853C2F2000360
:1042900093ED007ADFED8E7AB4EEE77AF1EE10FA64
:1042A0008CBF00230123DBB2002B00F0058140F21C
:1042B000AC53C2F2000393ED007ADFED857AB4EEE1
:1042C000E77AF1EE10FA8CBF00230123DBB2002B5A
:1042D00000F0F28040F27443C2F200031A6840F228
:1042E0009453C2F200031A6040F2B853C2F20003C2
:1042F0004FF001021A6040F64C23C2F200034FF067
:1043000000021A60D8E040F2B053C2F2000393ED0D
:10431000007ADFED6E7AB4EEE77AF1EE10FAB4BF10
:1043200000230123DBB2002B00F0AF8040F2A85342
:10433000C2F2000393ED007ADFED667AB4EEE77A1D
:10434000F1EE10FAB4BF00230123DBB2002B2AD018
:1043500040F2AC53C2F2000393ED007ADFED5D7AD8
:10436000B4EEE77AF1EE10FAB4BF00230123DBB21A
:10437000002B18D040F27043C2F200031A6840F2DA
:104380009453C2F200031A6040F2B853C2F2000321
:104390004FF000021A6040F64C23C2F200034FF0C7
:1043A00001021A6088E040F2A853C2F2000393EDC4
:1043B000007A40F2AC53C2F20003D3ED007AB4EEBF
:1043C000E77AF1EE10FA54BF00230123DBB2002B91
:1043D00022D040F27843C2F200031A6840F29453AC
:1043E000C2F200031A6040F2B853C2F200034FF069
:1043F00000021A6040F64C23C2F200034FF00102A3
:104400001A6040F29843C2F200031A6840F2C453A3
:10441000C2F200031A604EE040F2AC53C2F2000355
:1044200093ED007A40F2A853C2F20003D3ED007A74
:10443000B4EEE77AF1EE10FA54BF00230123DBB2A9
:10444000002B38D040F27C43C2F200031A6840F2DD
:104450009453C2F200031A6040F2B853C2F2000350
:104460004FF000021A6040F64C23C2F200034FF0F6
:1044700001021A6040F29C43C2F200031A6840F243
:10448000C453C2F200031A6015E04FF000037B60D2
:1044900040F2A853C2F200030F4A1A6040F2AC5334
:1044A000C2F200030C4A1A6040F2B053C2F2000399
:1044B000094A1A6000E000BF7B68042B7FF60FAE4C
:1044C00007F10807BD4680BD00007A44000048425D
:1044D00000002043000048430000000080B500AF0A
:1044E000FEF7E0FFFFF7AEF8FFF758FC80BD00BF16
:1044F00080B500AFFFF738FA4FF48050C4F20100E6
:1045000043F20811C0F60201FCF7CEFD4FF48050D3
:10451000C4F2010043F23411C0F60201FCF7C4FDFD
:1045200040F29053C2F200031B6803F1FF33032BE8
:1045300036D801A252F823F0494500085F4500082B
:10454000754500088B4500084FF48050C4F2010007
:1045500043F24C11C0F60201FCF7A6FD20E04FF437
:104560008050C4F2010043F25C11C0F60201FCF776
:104570009BFD15E04FF48050C4F2010043F26C1132
:10458000C0F60201FCF790FD0AE04FF48050C4F23F
:10459000010043F27C11C0F60201FCF785FD00BF6B
:1045A00040F29853C2F20003D3ED007AFDEEE77AB1
:1045B00017EE902A40F29C53C2F20003D3ED007A2A
:1045C000FDEEE77A17EE903A4FF48050C4F2010006
:1045D00043F28C11C0F60201FCF766FD40F2A053D5
:1045E000C2F20003D3ED007AFDEEE77A17EE902ACF
:1045F00040F2B853C2F200031B684FF48050C4F27B
:10460000010043F2A011C0F60201FCF74DFD40F697
:104610004C23C2F200031B684FF48050C4F2010027
:1046200043F2B811C0F602011A46FCF73DFD40F214
:10463000C453C2F200031B684FF48050C4F201005F
:1046400043F2D411C0F602011A46FCF72DFDFFF724
:104650003FFD4FF48050C4F2010043F2F011C0F668
:104660000201FCF721FD40F29453C2F200031B68E3
:1046700003F1FF33032B37D801A252F823F000BF18
:1046800091460008A7460008BD460008D34600082A
:104690004FF48050C4F2010043F24C11C0F6020105
:1046A000FCF702FD20E04FF48050C4F2010043F219
:1046B0005C11C0F60201FCF7F7FC15E04FF48050E6
:1046C000C4F2010043F26C11C0F60201FCF7ECFCED
:1046D0000AE04FF48050C4F2010043F27C11C0F6AE
:1046E0000201FCF7E1FC00BF40F2A853C2F2000354
:1046F000D3ED007AFDEEE77A17EE902A40F2AC5344
:10470000C2F20003D3ED007AFDEEE77A17EE903A9D
:104710004FF48050C4F2010043F28C11C0F6020144
:10472000FCF7C2FC40F2B053C2F20003D3ED007AB2
:10473000FDEEE77A17EE902A40F2B853C2F200037A
:104740001B684FF48050C4F2010043F2A011C0F680
:104750000201FCF7A9FC40F64C23C2F200031B68DF
:104760004FF48050C4F2010043F20821C0F6020168
:104770001A46FCF799FC40F2C453C2F200031B68CE
:104780004FF48050C4F2010043F22421C0F602012C
:104790001A46FCF789FC4FF48050C4F2010043F242
:1047A0000811C0F60201FCF77FFC80BD80B582B025
:1047B00000AF4FF001037B607B68012B40F08C80E1
:1047C00040F6A823C2F200039B681E2B39D94FF094
:1047D000040010F0CBF940F6A823C2F200035B6896
:1047E000142B79D94FF096004FF0050112F062FFBB
:1047F0004FF096004FF0050112F05CFF12E04FF011
:1048000096004FF0050112F055FF40F6A823C2F2C2
:1048100000039B680D2B05D84FF005004FF0820177
:1048200012F0FEFA40F6A823C2F200035B680E2BDA
:1048300052D940F6A823C2F200035B690E2BDED8E2
:104840004AE040F6A823C2F200039B681E2B43D81F
:104850004FF0050010F08AF912E040F6A823C2F2EA
:1048600000039B680D2B05D84FF005004FF0820127
:1048700012F0D6FA4FF096004FF0050113F000FD4C
:1048800040F6A823C2F200039B681E2B06D840F610
:10489000A823C2F200035B680E2BDED840F6A823E3
:1048A000C2F200039B681E2B0ED840F6A823C2F26A
:1048B00000035B680F2BD0D906E04FF096004FF055
:1048C000050113F0DDFC00E000BF40F6A823C2F2B2
:1048D00000035B690D2BF0D907F10807BD4680BDC9
:1048E00080B500AFFFF7F4FB07E0FFF7F1FB4FF0F7
:1048F00005004FF0960111F049FE40F2B853C2F2A4
:1049000000031B68012BF0D0FFF7E2FB40F2C45319
:10491000C2F200031A6840F29843C2F200031B6817
:104920009A420AD140F29843C2F200031A6840F258
:10493000C053C2F200031A6015E040F2C453C2F241
:1049400000031A6840F29C43C2F200031B689A42BB
:1049500009D140F29C43C2F200031A6840F2C053EE
:10496000C2F200031A6040F2C053C2F200031A6898
:1049700040F29843C2F200031B689A420AD14FF4F6
:104980008050C4F2010043F24021C0F60201FCF75E
:104990008BFB15E040F2C053C2F200031A6840F2EC
:1049A0009C43C2F200031B689A4209D14FF4805025
:1049B000C4F2010043F26021C0F60201FCF774FB6F
:1049C00080BD00BF80B500AF0FF0C8FA40F6681395
:1049D000C2F20003DB68002B10D040F66813C2F26D
:1049E00000039B68002B21D108E00FF0F7FA4FF08D
:1049F00096004FF0050114F045FC00E000BF40F6C2
:104A00006813C2F20003DB68002BEED007E00FF062
:104A1000F7FA4FF096004FF0050114F017FA40F640
:104A20006813C2F200039B68002BF0D040F66813B5
:104A3000C2F20003D3F81031002B25D140F66813E1
:104A4000C2F20003D3F80431012B1DD14FF00F0047
:104A50004FF0960112F0E4F90DE00FF07FFA4FF0FD
:104A600096004FF0050113F00BFC4FF096004FF04D
:104A7000050113F005FC40F66813C2F20003D3F8F9
:104A80001031002BE9D02CE040F66813C2F200038D
:104A9000D3F81031012B24D140F66813C2F2000381
:104AA000D3F80431002B1CD14FF00F004FF09601CA
:104AB00012F0B6F90DE00FF051FA4FF096004FF0FA
:104AC000050112F0F7FD4FF096004FF0050112F0CE
:104AD000F1FD40F66813C2F20003D3F80431002B55
:104AE000E9D080BD80B500AF40F69033C2F200033C
:104AF0004FF000021A6040F62433C2F200034FF078
:104B000000021A60FEF730FF40F2B853C2F2000311
:104B10001B681A4640F69033C2F200031A60FFF792
:104B2000D7FA40F2B853C2F200031B681A4640F6A7
:104B30002433C2F200031A6040F69033C2F200033D
:104B40001B68002B09D040F62433C2F200031B6817
:104B5000002B02D04FF0010301E04FF000031A4692
:104B600040F2BC53C2F200031A6040F69033C2F226
:104B700000031B68002B09D040F62433C2F2000367
:104B80001B68002B02D04FF0010301E04FF000033F
:104B90001A4640F23863C2F200031A6040F23863EA
:104BA000C2F200031A6840F27853C2F200031B6895
:104BB0009A423BD140F2D053C2F200031A6840F24D
:104BC000D853C2F200031B689A422FD14FF4805091
:104BD000C4F2010043F2B021C0F60201FCF764FA0E
:104BE00040F2C053C2F200031A6840F29843C2F286
:104BF00000031B689A4204D14FF007000AF054FCEE
:104C000025E240F2C053C2F200031A6840F29C430E
:104C1000C2F200031B689A4240F019824FF6550316
:104C2000C0F600034FF00700984710E240F2BC5373
:104C3000C2F200031A6840F28843C2F200031B6804
:104C40009A4213D140F2D053C2F200031A6840F2E4
:104C5000A443C2F200031B689A4207D140F24063AA
:104C6000C2F200031B68012B00F0F28140F2BC533A
:104C7000C2F200031A6840F28843C2F200031B68C4
:104C80009A4240F09C8040F2D053C2F200031A686E
:104C900040F2A443C2F200031B689A4240F08F80A6
:104CA00040F24063C2F200031B68002B40F0878093
:104CB0004FF48050C4F2010043F2C821C0F6020153
:104CC000FCF7F2F940F2F853C2F200031B68002B24
:104CD00049D14FF48050C4F2010043F2F821C0F6EC
:104CE0000201FCF7E1F930E040F2C053C2F20003E8
:104CF0001A6840F29C43C2F200031B689A420CD12E
:104D00004FF096004FF0050112F0D4FC4FF09600E2
:104D10004FF0050112F0CEFC17E040F2C053C2F292
:104D200000031A6840F29843C2F200031B689A42DB
:104D30000BD14FF096004FF0050113F0A1FA4FF0A0
:104D400096004FF0050113F09BFA40F6A823C2F23B
:104D500000039B68192BC7D94FF005004FF0820163
:104D600011F014FC1CE040F2F853C2F200031B687F
:104D7000012B15D10DE001F051F94FF096004FF0E5
:104D8000050112F097FC4FF096004FF0050112F06C
:104D900091FC40F2F853C2F200031B68012BEAD0E9
:104DA00040F69033C2F200034FF000021A6040F662
:104DB0002433C2F200034FF000021A6048E140F6CB
:104DC0002433C2F200031B68012B40F0418140F202
:104DD0004063C2F200031B68002B40F039814FF49E
:104DE0008050C4F2010043F21831C0F60201FCF712
:104DF0005BF940F2D053C2F200031A6840F2A443B8
:104E0000C2F200031B689A426FD140F2F853C2F21B
:104E100000031B68012B68D140F24063C2F200031B
:104E20001B68002B61D10FF099F840F6A823C2F25D
:104E300000039B68192B23D94FF40060C4F20200D1
:104E40004FF00201FEF76EF903461A4640F668136A
:104E5000C2F2000353F82230002B11D04FF400604F
:104E6000C4F202004FF00401FEF75CF903461A4653
:104E700040F66813C2F2000353F82230002B20D111
:104E80004FF48050C4F2010043F23431C0F6020105
:104E9000FCF70AF90DE001F0C1F84FF096004FF071
:104EA000050112F007FC4FF096004FF0050112F0DB
:104EB00001FC40F2F853C2F200031B68012BEAD058
:104EC000B6E043F61933C0F60103984740F6903335
:104ED000C2F200034FF000021A6040F62433C2F21F
:104EE00000034FF000021A60A2E04FF48050C4F2B9
:104EF000010043F26831C0F60201FCF7D5F80AF070
:104F000061FA40F2D053C2F200031A6840F2D05363
:104F1000C2F200035A6040F2A443C2F200031A68CE
:104F200040F2D053C2F200031A604FF48050C4F232
:104F3000010043F28031C0F60201FCF7B5F80AF037
:104F400041FA40F2D053C2F200035A6840F2D853FB
:104F5000C2F200031B689A4226D140F2D053C2F23B
:104F600000031A6840F2A443C2F200031B689A428D
:104F70001AD140F2A443C2F200031A6840F2D0539F
:104F8000C2F200031A604FF48050C4F2010043F2F1
:104F90009C31C0F60201FCF787F84FF00A004FF091
:104FA000500111F0F3FA33E040F2D053C2F20003A3
:104FB0005A6840F2A443C2F200031B689A4227D108
:104FC00040F2D053C2F200031A6840F2A443C2F286
:104FD00000031B689A421BD140F2D853C2F200036F
:104FE0001A6840F2D053C2F200031A604FF48050A6
:104FF000C4F2010043F2B431C0F60201FCF754F8E8
:10500000FFF7E0FC4FF00F004FF0500111F0BEFA37
:105010000AF0D8F940F69033C2F200034FF00002D4
:105020001A6040F62433C2F200034FF000021A6007
:1050300040F69033C2F200034FF000021A6040F6CF
:105040002433C2F200034FF000021A6000E000BFF8
:1050500080BD00BF80B500AF40F60843C2F2000338
:105060001B881846FDF792FA4FF48050C4F20100F5
:1050700043F2D031C0F60201FCF716F840F2984333
:10508000C2F200031A6840F2C053C2F200031A6071
:1050900009E000BF07E04FF001000FF067FD4FF09F
:1050A0006400FDF761FB40F6A823C2F200039B6891
:1050B000002BF0D0FFF77AFB4FF004000FF056FD05
:1050C000FFF780FC4FF00A004FF0820111F05EFA0A
:1050D000FFF706FCFFF776FC40F2C053C2F2000374
:1050E0001A6840F29843C2F200031B689A420CD03F
:1050F00040F2C053C2F200031A6840F29C43C2F26D
:1051000000031B689A4240F0C1804FF48050C4F203
:10511000010043F2EC31C0F60201FBF7C5FF40F29B
:10512000C053C2F200031A6840F29843C2F200036F
:105130001B689A4240F08C804FF48050C4F201000A
:1051400043F20C41C0F60201FBF7AEFF4FF0020044
:105150000FF00CFD4FF48050C4F2010043F22041E7
:10516000C0F60201FBF7A0FF40F2D053C2F20003E9
:105170001A6840F2D853C2F200031B689A4201D168
:1051800003F0D2FC4FF48050C4F2010043F23C41E2
:10519000C0F60201FBF788FF4FF004000FF0E6FCB9
:1051A00017E048F2D943C0F60003984740F2E053B5
:1051B000C2F200031B68012B18D040F2D053C2F298
:1051C00000031A6840F2D853C2F200031B689A42E7
:1051D0000ED040F2D053C2F200031A6840F2A4434A
:1051E000C2F200031B689A42DBD002E000BF00E07D
:1051F00000BF4FF48050C4F2010043F25C41C0F69E
:105200000201FBF751FF4FF007000FF0AFFC10E079
:1052100048F6C513C0F60003984740F2D053C2F2D7
:1052200000031A6840F2A443C2F200031B689A42CA
:105230000CD040F2D053C2F200031A6840F2D853A7
:10524000C2F200031B689A42E2D09BE700BF99E7D5
:1052500040F2C053C2F200031A6840F29C43C2F20B
:1052600000031B689A4240F06F814FF48050C4F2F3
:10527000010043F28041C0F60201FBF715FF4FF039
:1052800003000FF073FC11F0F9F8FCE740F29453BF
:10529000C2F200031A6840F27043C2F200031B68B6
:1052A0009A427FF4F6AE4FF001000FF05FFC4FF42E
:1052B0008050C4F2010043F29441C0F60201FBF7B2
:1052C000F3FE40F2A443C2F200031A6840F2D05346
:1052D000C2F200031A600DE007F0E6FB40F2D05383
:1052E000C2F200031A6840F2D853C2F200031B68EE
:1052F0009A420CD040F2D053C2F200031A6840F236
:10530000A443C2F200031B689A42E5D000E000BF4C
:105310004FF48050C4F2010043F25C41C0F6020138
:10532000FBF7C2FEFFF74EFB4FF096004FF0050172
:1053300012F0A6FF4FF096004FF0050112F0A0FF0B
:105340004FF096004FF0050112F09AFF4FF09600D3
:105350004FF0050112F094FF4FF00F004FF096014F
:1053600011F014F90AF02EF8FFF7C2F84FF480504C
:10537000C4F2010043F2B041C0F60201FBF794FE13
:105380000EF050FE40F27840C2F2000040F2904130
:10539000C2F200010DF0BCFDFFF7AAF823E040F2D5
:1053A000F053C2F200031A6840F2EC53C2F2000359
:1053B0001A604FF48050C4F2010043F2E041C0F69D
:1053C0000201FBF771FE0EF02DFE03F0ADFB40F283
:1053D000D053C2F200031A6840F2A443C2F20003A1
:1053E0001B689A420CD040F2D053C2F200031A68F4
:1053F00040F2D853C2F200031B689A42CFD000E0BB
:1054000000BF40F2EC53C2F200031A6840F2A84316
:10541000C2F200031B689A4242D10EF003FE31E053
:1054200040F2F053C2F200031A6840F2EC53C2F2A9
:1054300000031A604FF48050C4F2010043F20C5193
:10544000C0F60201FBF730FE40F2EC53C2F200035B
:105450001B684FF48050C4F2010043F23851C0F68B
:1054600002011A46FBF720FE07F056F840F2D0532F
:10547000C2F200031A6840F2A443C2F200031B68A0
:105480009A420CD040F2D053C2F200031A6840F2A4
:10549000D853C2F200031B689A42C1D000E000BF9B
:1054A0004FF48050C4F2010043F23C41C0F60201C7
:1054B000FBF7FAFD4FF004000FF058FB33E040F229
:1054C0003063C2F200031B6803F1010240F2306353
:1054D000C2F200031A6040F23063C2F200031B689C
:1054E0004FF48050C4F2010043F25051C0F6020163
:1054F0001A46FBF7D9FD48F2D943C0F60003984796
:1055000040F2E053C2F200031B68012B18D040F2B6
:10551000D053C2F200031A6840F2D853C2F200031B
:105520001B689A420ED040F2D053C2F200031A68B0
:1055300040F2A443C2F200031B689A42BFD0E7E6E0
:1055400000BF00E000BFE3E600BFA2E580B500AF0A
:1055500040F60843C2F200031B881846FDF716F810
:105560004FF48050C4F2010043F27051C0F60201C2
:10557000FBF79AFD4FF48050C4F2010043F28C51C6
:10558000C0F60201FBF790FD40F29C43C2F200031B
:105590001A6840F2C053C2F200031A6009E000BF6B
:1055A00007E04FF001000FF0E1FA4FF06400FDF763
:1055B000DBF840F6A823C2F200039B68002BF0D072
:1055C00043F6BD53C0F6010398474FF004000FF0B7
:1055D000CDFAFFF7F7F94FF00A004FF0820110F013
:1055E000D5FFFFF77DF9FFF7EDF940F29453C2F2D2
:1055F00000031A6840F27C43C2F200031B689A421F
:1056000040F055814FF48050C4F2010043F2A451A0
:10561000C0F60201FBF748FD4FF48050C4F20100D0
:1056200043F28041C0F60201FBF73EFD4FF002005D
:105630000FF09CFA4FF48050C4F2010043F2C051C5
:10564000C0F60201FBF730FD40F2D053C2F2000376
:105650001A6840F2D853C2F200031B689A4205D17F
:105660000EF0E0FC06F058FF00E000BF4FF4805061
:10567000C4F2010043F23C41C0F60201FBF714FD05
:105680004FF004000FF072FA33E040F23063C2F2E0
:1056900000031B6803F1010240F23063C2F2000311
:1056A0001A6040F23063C2F200031B684FF480506E
:1056B000C4F2010043F25051C0F602011A46FBF752
:1056C000F3FC48F2D943C0F60003984740F2E05398
:1056D000C2F200031B68012B18D040F2D053C2F273
:1056E00000031A6840F2D853C2F200031B689A42C2
:1056F0000ED040F2D053C2F200031A6840F2A44325
:10570000C2F200031B689A42BFD002E000BF00E073
:1057100000BF4FF48050C4F2010043F25C41C0F678
:105720000201FBF7C1FC4FF007000FF01FFAFFF773
:1057300049F94FF096004FF0050111F0BBFF4FF013
:1057400096004FF0050111F0B5FF4FF096004FF0B5
:10575000050111F0AFFF4FF096004FF0050111F079
:10576000A9FF4FF00F004FF0960110F00FFF09F066
:1057700029FEFEF7BDFE4FF48050C4F2010043F253
:10578000DC51C0F60201FBF78FFC0EF04BFC40F23F
:105790007C40C2F2000040F29041C2F200010CF0E5
:1057A00019FFFEF7A5FE23E040F2F053C2F200031A
:1057B0001A6840F2EC53C2F200031A604FF48050B2
:1057C000C4F2010043F20C61C0F60201FBF76CFC6D
:1057D0000EF028FC06F0A0FE40F2D053C2F2000307
:1057E0001A6840F2A443C2F200031B689A420CD02C
:1057F00040F2D053C2F200031A6840F2D853C2F20A
:1058000000031B689A42CFD000E000BF40F2EC5387
:10581000C2F200031A6840F2A843C2F200031B68F8
:105820009A427FF422AF0EF0FDFB31E040F2F053DC
:10583000C2F200031A6840F2EC53C2F200031A608D
:105840004FF48050C4F2010043F20C51C0F6020143
:10585000FBF72AFC40F2EC53C2F200031B684FF442
:105860008050C4F2010043F23851C0F602011A46DA
:10587000FBF71AFC03F058F940F2D053C2F20003D0
:105880001A6840F2A443C2F200031B689A420CD08B
:1058900040F2D053C2F200031A6840F2D853C2F269
:1058A00000031B689A42C1D0DFE600BFDDE640F28C
:1058B0009453C2F200031A6840F27043C2F200032C
:1058C0001B689A427FF46BAE4FF001000FF04EF967
:1058D0004FF48050C4F2010043F29441C0F602013B
:1058E000FBF7E2FB40F2A443C2F200031A6840F265
:1058F000D053C2F200031A6012E00EF093FB4CF694
:105900002D63C0F60003984740F2D053C2F2000363
:105910001A6840F2D853C2F200031B689A420CD0B6
:1059200040F2D053C2F200031A6840F2A443C2F21C
:1059300000031B689A42E0D000E000BF4FF48050A3
:10594000C4F2010043F23861C0F60201FBF7ACFB80
:10595000FFF738F840F6A823C2F200035B68142B67
:1059600000F2DF804FF48050C4F2010043F2606126
:10597000C0F60201FBF798FB4FF096004FF00501CF
:1059800012F07EFC4FF096004FF0050112F078FC0B
:105990004FF096004FF0050112F072FC4FF09600A8
:1059A0004FF0050112F06CFC4FF014004FF096011F
:1059B00010F0ECFDFFF706F8FEF79AFD4FF480506B
:1059C000C4F2010043F27C61C0F60201FBF76CFBFC
:1059D0000EF028FB40F27C40C2F2000040F2904101
:1059E000C2F200010DF094FAFEF782FD4FF48050F0
:1059F000C4F2010043F2AC61C0F60201FBF754FBB4
:105A00000EF010FB40F27040C2F2000040F29041F4
:105A1000C2F200010DF07CFA23E040F2F053C2F232
:105A200000031A6840F2EC53C2F200031A604FF40C
:105A30008050C4F2010043F20C61C0F60201FBF792
:105A400033FB0EF0EFFA03F06FF840F2D053C2F2DE
:105A500000031A6840F2A443C2F200031B689A4292
:105A60000CD040F2D053C2F200031A6840F2D8536F
:105A7000C2F200031B689A42CFD000E000BF40F2A0
:105A8000EC53C2F200031A6840F2A843C2F20003CA
:105A90001B689A4240F02A810EF0C4FA34E040F2CA
:105AA000F053C2F200031A6840F2EC53C2F2000352
:105AB0001A604FF48050C4F2010043F2DC61C0F67A
:105AC0000201FBF7F1FA40F2EC53C2F200031B684B
:105AD0004FF48050C4F2010043F23851C0F6020185
